{
	"contractName": "CarRentalPlatform",
	"abi": [
		{
			"inputs": [],
			"stateMutability": "nonpayable",
			"type": "constructor"
		},
		{
			"anonymous": false,
			"inputs": [
				{
					"indexed": true,
					"internalType": "address",
					"name": "walletAddress",
					"type": "address"
				},
				{
					"indexed": false,
					"internalType": "uint256",
					"name": "amount",
					"type": "uint256"
				}
			],
			"name": "BalanceWithdraw",
			"type": "event"
		},
		{
			"anonymous": false,
			"inputs": [
				{
					"indexed": true,
					"internalType": "uint256",
					"name": "id",
					"type": "uint256"
				},
				{
					"indexed": false,
					"internalType": "string",
					"name": "name",
					"type": "string"
				},
				{
					"indexed": false,
					"internalType": "string",
					"name": "imgUrl",
					"type": "string"
				},
				{
					"indexed": false,
					"internalType": "uint256",
					"name": "rentFee",
					"type": "uint256"
				},
				{
					"indexed": false,
					"internalType": "uint256",
					"name": "saleFee",
					"type": "uint256"
				}
			],
			"name": "CarAdded",
			"type": "event"
		},
		{
			"anonymous": false,
			"inputs": [
				{
					"indexed": true,
					"internalType": "uint256",
					"name": "id",
					"type": "uint256"
				},
				{
					"indexed": false,
					"internalType": "string",
					"name": "name",
					"type": "string"
				},
				{
					"indexed": false,
					"internalType": "string",
					"name": "imgUrl",
					"type": "string"
				},
				{
					"indexed": false,
					"internalType": "uint256",
					"name": "rentFee",
					"type": "uint256"
				},
				{
					"indexed": false,
					"internalType": "uint256",
					"name": "saleFee",
					"type": "uint256"
				}
			],
			"name": "CarMetadataEdited",
			"type": "event"
		},
		{
			"anonymous": false,
			"inputs": [
				{
					"indexed": true,
					"internalType": "uint256",
					"name": "id",
					"type": "uint256"
				},
				{
					"indexed": false,
					"internalType": "enum CarRentalPlatform.Status",
					"name": "status",
					"type": "uint8"
				}
			],
			"name": "CarStatusEdited",
			"type": "event"
		},
		{
			"anonymous": false,
			"inputs": [
				{
					"indexed": true,
					"internalType": "address",
					"name": "walletAddress",
					"type": "address"
				},
				{
					"indexed": true,
					"internalType": "uint256",
					"name": "CarId",
					"type": "uint256"
				}
			],
			"name": "CheckIn",
			"type": "event"
		},
		{
			"anonymous": false,
			"inputs": [
				{
					"indexed": true,
					"internalType": "address",
					"name": "walletAddress",
					"type": "address"
				},
				{
					"indexed": true,
					"internalType": "uint256",
					"name": "CarId",
					"type": "uint256"
				}
			],
			"name": "CheckOut",
			"type": "event"
		},
		{
			"anonymous": false,
			"inputs": [
				{
					"indexed": true,
					"internalType": "address",
					"name": "walletAddress",
					"type": "address"
				},
				{
					"indexed": false,
					"internalType": "uint256",
					"name": "amount",
					"type": "uint256"
				}
			],
			"name": "Deposit",
			"type": "event"
		},
		{
			"anonymous": false,
			"inputs": [
				{
					"indexed": true,
					"internalType": "address",
					"name": "walletAddress",
					"type": "address"
				},
				{
					"indexed": false,
					"internalType": "uint256",
					"name": "amount",
					"type": "uint256"
				}
			],
			"name": "PaymentMade",
			"type": "event"
		},
		{
			"anonymous": false,
			"inputs": [
				{
					"indexed": true,
					"internalType": "address",
					"name": "walletAddress",
					"type": "address"
				},
				{
					"indexed": false,
					"internalType": "string",
					"name": "name",
					"type": "string"
				},
				{
					"indexed": false,
					"internalType": "string",
					"name": "lastname",
					"type": "string"
				}
			],
			"name": "UserAdded",
			"type": "event"
		},
		{
			"inputs": [
				{
					"internalType": "address",
					"name": "_newOwner",
					"type": "address"
				}
			],
			"name": "setOwner",
			"outputs": [],
			"stateMutability": "nonpayable",
			"type": "function"
		},
		{
			"inputs": [
				{
					"internalType": "string",
					"name": "name",
					"type": "string"
				},
				{
					"internalType": "string",
					"name": "lastname",
					"type": "string"
				}
			],
			"name": "addUser",
			"outputs": [],
			"stateMutability": "nonpayable",
			"type": "function"
		},
		{
			"inputs": [
				{
					"internalType": "string",
					"name": "name",
					"type": "string"
				},
				{
					"internalType": "string",
					"name": "url",
					"type": "string"
				},
				{
					"internalType": "uint256",
					"name": "rent",
					"type": "uint256"
				},
				{
					"internalType": "uint256",
					"name": "sale",
					"type": "uint256"
				}
			],
			"name": "addCar",
			"outputs": [],
			"stateMutability": "nonpayable",
			"type": "function"
		},
		{
			"inputs": [
				{
					"internalType": "uint256",
					"name": "id",
					"type": "uint256"
				},
				{
					"internalType": "string",
					"name": "name",
					"type": "string"
				},
				{
					"internalType": "string",
					"name": "imgUrl",
					"type": "string"
				},
				{
					"internalType": "uint256",
					"name": "rentFee",
					"type": "uint256"
				},
				{
					"internalType": "uint256",
					"name": "saleFee",
					"type": "uint256"
				}
			],
			"name": "editCarMetadata",
			"outputs": [],
			"stateMutability": "nonpayable",
			"type": "function"
		},
		{
			"inputs": [
				{
					"internalType": "uint256",
					"name": "id",
					"type": "uint256"
				},
				{
					"internalType": "enum CarRentalPlatform.Status",
					"name": "status",
					"type": "uint8"
				}
			],
			"name": "editCarStatus",
			"outputs": [],
			"stateMutability": "nonpayable",
			"type": "function"
		},
		{
			"inputs": [
				{
					"internalType": "uint256",
					"name": "id",
					"type": "uint256"
				}
			],
			"name": "checkOut",
			"outputs": [],
			"stateMutability": "nonpayable",
			"type": "function"
		},
		{
			"inputs": [],
			"name": "checkIn",
			"outputs": [],
			"stateMutability": "nonpayable",
			"type": "function"
		},
		{
			"inputs": [],
			"name": "deposit",
			"outputs": [],
			"stateMutability": "payable",
			"type": "function",
			"payable": true
		},
		{
			"inputs": [],
			"name": "makePayment",
			"outputs": [],
			"stateMutability": "payable",
			"type": "function",
			"payable": true
		},
		{
			"inputs": [
				{
					"internalType": "uint256",
					"name": "amount",
					"type": "uint256"
				}
			],
			"name": "withdrawBalance",
			"outputs": [],
			"stateMutability": "nonpayable",
			"type": "function"
		},
		{
			"inputs": [
				{
					"internalType": "uint256",
					"name": "amount",
					"type": "uint256"
				}
			],
			"name": "withdrawOwnerBalance",
			"outputs": [],
			"stateMutability": "nonpayable",
			"type": "function"
		},
		{
			"inputs": [],
			"name": "getOwner",
			"outputs": [
				{
					"internalType": "address",
					"name": "",
					"type": "address"
				}
			],
			"stateMutability": "view",
			"type": "function",
			"constant": true
		},
		{
			"inputs": [
				{
					"internalType": "address",
					"name": "walletAddress",
					"type": "address"
				}
			],
			"name": "getUser",
			"outputs": [
				{
					"components": [
						{
							"internalType": "address",
							"name": "walletAddress",
							"type": "address"
						},
						{
							"internalType": "string",
							"name": "name",
							"type": "string"
						},
						{
							"internalType": "string",
							"name": "lastname",
							"type": "string"
						},
						{
							"internalType": "uint256",
							"name": "rentedCarId",
							"type": "uint256"
						},
						{
							"internalType": "uint256",
							"name": "balance",
							"type": "uint256"
						},
						{
							"internalType": "uint256",
							"name": "debt",
							"type": "uint256"
						},
						{
							"internalType": "uint256",
							"name": "start",
							"type": "uint256"
						}
					],
					"internalType": "struct CarRentalPlatform.User",
					"name": "",
					"type": "tuple"
				}
			],
			"stateMutability": "view",
			"type": "function",
			"constant": true
		},
		{
			"inputs": [
				{
					"internalType": "uint256",
					"name": "id",
					"type": "uint256"
				}
			],
			"name": "getCar",
			"outputs": [
				{
					"components": [
						{
							"internalType": "uint256",
							"name": "id",
							"type": "uint256"
						},
						{
							"internalType": "string",
							"name": "name",
							"type": "string"
						},
						{
							"internalType": "string",
							"name": "imgUrl",
							"type": "string"
						},
						{
							"internalType": "enum CarRentalPlatform.Status",
							"name": "status",
							"type": "uint8"
						},
						{
							"internalType": "uint256",
							"name": "rentFee",
							"type": "uint256"
						},
						{
							"internalType": "uint256",
							"name": "saleFee",
							"type": "uint256"
						}
					],
					"internalType": "struct CarRentalPlatform.Car",
					"name": "",
					"type": "tuple"
				}
			],
			"stateMutability": "view",
			"type": "function",
			"constant": true
		},
		{
			"inputs": [
				{
					"internalType": "enum CarRentalPlatform.Status",
					"name": "_status",
					"type": "uint8"
				}
			],
			"name": "getCarByStatus",
			"outputs": [
				{
					"components": [
						{
							"internalType": "uint256",
							"name": "id",
							"type": "uint256"
						},
						{
							"internalType": "string",
							"name": "name",
							"type": "string"
						},
						{
							"internalType": "string",
							"name": "imgUrl",
							"type": "string"
						},
						{
							"internalType": "enum CarRentalPlatform.Status",
							"name": "status",
							"type": "uint8"
						},
						{
							"internalType": "uint256",
							"name": "rentFee",
							"type": "uint256"
						},
						{
							"internalType": "uint256",
							"name": "saleFee",
							"type": "uint256"
						}
					],
					"internalType": "struct CarRentalPlatform.Car[]",
					"name": "",
					"type": "tuple[]"
				}
			],
			"stateMutability": "view",
			"type": "function",
			"constant": true
		},
		{
			"inputs": [],
			"name": "getCurrentCount",
			"outputs": [
				{
					"internalType": "uint256",
					"name": "",
					"type": "uint256"
				}
			],
			"stateMutability": "view",
			"type": "function",
			"constant": true
		},
		{
			"inputs": [],
			"name": "getContractBalance",
			"outputs": [
				{
					"internalType": "uint256",
					"name": "",
					"type": "uint256"
				}
			],
			"stateMutability": "view",
			"type": "function",
			"constant": true
		},
		{
			"inputs": [],
			"name": "getTotalPayments",
			"outputs": [
				{
					"internalType": "uint256",
					"name": "",
					"type": "uint256"
				}
			],
			"stateMutability": "view",
			"type": "function",
			"constant": true
		}
	],
	"bytecode": "0x608060405234801561001057600080fd5b50600160008190555033600260006101000a81548173ffffffffffffffffffffffffffffffffffffffff021916908373ffffffffffffffffffffffffffffffffffffffff1602179055506000600381905550613a3d806100716000396000f3fe6080604052600436106101095760003560e01c80636f9fb98a11610095578063d0e30db011610064578063d0e30db014610353578063d8546f491461035d578063d8d7970014610386578063da76d5cd14610390578063dd51babf146103b957610109565b80636f9fb98a146102a9578063708f29a6146102d4578063893d20e8146102ff5780639a43da731461032a57610109565b80631bd2eeee116100dc5780631bd2eeee146101b45780633c69c657146101dd5780634865bed2146102065780635e8be1901461022f5780636f77926b1461026c57610109565b8063079eaf341461010e5780630a4115271461013757806313af403514610174578063183ff0851461019d575b600080fd5b34801561011a57600080fd5b506101356004803603810190610130919061271d565b6103e4565b005b34801561014357600080fd5b5061015e600480360381019061015991906126f0565b6106c5565b60405161016b9190612f50565b60405180910390f35b34801561018057600080fd5b5061019b600480360381019061019691906126c3565b6109f6565b005b3480156101a957600080fd5b506101b2610aca565b005b3480156101c057600080fd5b506101db60048036038101906101d69190612845565b610d84565b005b3480156101e957600080fd5b5061020460048036038101906101ff9190612845565b611073565b005b34801561021257600080fd5b5061022d6004803603810190610228919061279e565b61122a565b005b34801561023b57600080fd5b5061025660048036038101906102519190612845565b6114d4565b6040516102639190613217565b60405180910390f35b34801561027857600080fd5b50610293600480360381019061028e91906126c3565b6116d8565b6040516102a09190613239565b60405180910390f35b3480156102b557600080fd5b506102be61191b565b6040516102cb919061325b565b60405180910390f35b3480156102e057600080fd5b506102e96119b3565b6040516102f6919061325b565b60405180910390f35b34801561030b57600080fd5b50610314611a4d565b6040516103219190612f35565b60405180910390f35b34801561033657600080fd5b50610351600480360381019061034c9190612872565b611a77565b005b61035b611bdb565b005b34801561036957600080fd5b50610384600480360381019061037f91906128b2565b611ccc565b005b61038e611e89565b005b34801561039c57600080fd5b506103b760048036038101906103b29190612845565b6120e8565b005b3480156103c557600080fd5b506103ce612319565b6040516103db919061325b565b60405180910390f35b6103ed3361232a565b1561042d576040517f08c379a000000000000000000000000000000000000000000000000000000000815260040161042490613017565b60405180910390fd5b6040518060e001604052803373ffffffffffffffffffffffffffffffffffffffff16815260200185858080601f016020809104026020016040519081016040528093929190818152602001838380828437600081840152601f19601f82011690508083019250505050505050815260200183838080601f016020809104026020016040519081016040528093929190818152602001838380828437600081840152601f19601f8201169050808301925050505050505081526020016000815260200160008152602001600081526020016000815250600460003373ffffffffffffffffffffffffffffffffffffffff1673ffffffffffffffffffffffffffffffffffffffff16815260200190815260200160002060008201518160000160006101000a81548173ffffffffffffffffffffffffffffffffffffffff021916908373ffffffffffffffffffffffffffffffffffffffff16021790555060208201518160010190805190602001906105a492919061246a565b5060408201518160020190805190602001906105c192919061246a565b50606082015181600301556080820151816004015560a0820151816005015560c082015181600601559050503373ffffffffffffffffffffffffffffffffffffffff167f8eab1db142a914aff8b515eedb9177bd7effaef6d714c41e30bdf15206778607600460003373ffffffffffffffffffffffffffffffffffffffff1673ffffffffffffffffffffffffffffffffffffffff168152602001908152602001600020600101600460003373ffffffffffffffffffffffffffffffffffffffff1673ffffffffffffffffffffffffffffffffffffffff1681526020019081526020016000206002016040516106b7929190612f8d565b60405180910390a250505050565b60606000806106d460016123c5565b90506000600190505b818111610755578460028111156106f7576106f661357e565b5b6005600083815260200190815260200160002060030160009054906101000a900460ff16600281111561072d5761072c61357e565b5b141561074257828061073e906134d7565b9350505b808061074d906134d7565b9150506106dd565b5060008267ffffffffffffffff8111156107725761077161360b565b5b6040519080825280602002602001820160405280156107ab57816020015b6107986124f0565b8152602001906001900390816107905790505b509050600092506000600190505b8281116109ea578560028111156107d3576107d261357e565b5b6005600083815260200190815260200160002060030160009054906101000a900460ff1660028111156108095761080861357e565b5b14156109d757600560008281526020019081526020016000206040518060c001604052908160008201548152602001600182018054610847906134a5565b80601f0160208091040260200160405190810160405280929190818152602001828054610873906134a5565b80156108c05780601f10610895576101008083540402835291602001916108c0565b820191906000526020600020905b8154815290600101906020018083116108a357829003601f168201915b505050505081526020016002820180546108d9906134a5565b80601f0160208091040260200160405190810160405280929190818152602001828054610905906134a5565b80156109525780601f1061092757610100808354040283529160200191610952565b820191906000526020600020905b81548152906001019060200180831161093557829003601f168201915b505050505081526020016003820160009054906101000a900460ff1660028111156109805761097f61357e565b5b60028111156109925761099161357e565b5b8152602001600482015481526020016005820154815250508285815181106109bd576109bc6135dc565b5b602002602001018190525083806109d3906134d7565b9450505b80806109e2906134d7565b9150506107b9565b50809350505050919050565b600260009054906101000a900473ffffffffffffffffffffffffffffffffffffffff1673ffffffffffffffffffffffffffffffffffffffff163373ffffffffffffffffffffffffffffffffffffffff1614610a86576040517f08c379a0000000000000000000000000000000000000000000000000000000008152600401610a7d90613037565b60405180910390fd5b80600260006101000a81548173ffffffffffffffffffffffffffffffffffffffff021916908373ffffffffffffffffffffffffffffffffffffffff16021790555050565b610ad33361232a565b610b12576040517f08c379a0000000000000000000000000000000000000000000000000000000008152600401610b0990613137565b60405180910390fd5b6000600460003373ffffffffffffffffffffffffffffffffffffffff1673ffffffffffffffffffffffffffffffffffffffff1681526020019081526020016000206003015490506000811415610b9d576040517f08c379a0000000000000000000000000000000000000000000000000000000008152600401610b9490613197565b60405180910390fd5b6000600460003373ffffffffffffffffffffffffffffffffffffffff1673ffffffffffffffffffffffffffffffffffffffff1681526020019081526020016000206006015442610bed91906133dd565b9050600060056000848152602001908152602001600020600401549050610c1482826123d3565b600460003373ffffffffffffffffffffffffffffffffffffffff1673ffffffffffffffffffffffffffffffffffffffff1681526020019081526020016000206005016000828254610c6591906132fc565b925050819055506000600460003373ffffffffffffffffffffffffffffffffffffffff1673ffffffffffffffffffffffffffffffffffffffff168152602001908152602001600020600301819055506000600460003373ffffffffffffffffffffffffffffffffffffffff1673ffffffffffffffffffffffffffffffffffffffff1681526020019081526020016000206006018190555060026005600085815260200190815260200160002060030160006101000a81548160ff02191690836002811115610d3657610d3561357e565b5b0217905550823373ffffffffffffffffffffffffffffffffffffffff167fa864a8b988e604bb05d6ce75d53efabb5620c45b15380b7bd0c51dcfa71dda0360405160405180910390a3505050565b610d8d3361232a565b610dcc576040517f08c379a0000000000000000000000000000000000000000000000000000000008152600401610dc390613137565b60405180910390fd5b600280811115610ddf57610dde61357e565b5b6005600083815260200190815260200160002060030160009054906101000a900460ff166002811115610e1557610e1461357e565b5b14610e55576040517f08c379a0000000000000000000000000000000000000000000000000000000008152600401610e4c906130d7565b60405180910390fd5b6000600460003373ffffffffffffffffffffffffffffffffffffffff1673ffffffffffffffffffffffffffffffffffffffff1681526020019081526020016000206003015414610eda576040517f08c379a0000000000000000000000000000000000000000000000000000000008152600401610ed190613057565b60405180910390fd5b6000600460003373ffffffffffffffffffffffffffffffffffffffff1673ffffffffffffffffffffffffffffffffffffffff1681526020019081526020016000206005015414610f5f576040517f08c379a0000000000000000000000000000000000000000000000000000000008152600401610f56906130f7565b60405180910390fd5b42600460003373ffffffffffffffffffffffffffffffffffffffff1673ffffffffffffffffffffffffffffffffffffffff1681526020019081526020016000206006018190555080600460003373ffffffffffffffffffffffffffffffffffffffff1673ffffffffffffffffffffffffffffffffffffffff1681526020019081526020016000206003018190555060016005600083815260200190815260200160002060030160006101000a81548160ff021916908360028111156110275761102661357e565b5b0217905550803373ffffffffffffffffffffffffffffffffffffffff167ff65ce03794824579bcd95d8c6743ffc10c4a5e7405fb3876c1abf81453105c4260405160405180910390a350565b600260009054906101000a900473ffffffffffffffffffffffffffffffffffffffff1673ffffffffffffffffffffffffffffffffffffffff163373ffffffffffffffffffffffffffffffffffffffff1614611103576040517f08c379a00000000000000000000000000000000000000000000000000000000081526004016110fa90613037565b60405180910390fd5b806003541015611148576040517f08c379a000000000000000000000000000000000000000000000000000000000815260040161113f90613077565b60405180910390fd5b6000600260009054906101000a900473ffffffffffffffffffffffffffffffffffffffff1673ffffffffffffffffffffffffffffffffffffffff168260405161119090612f20565b60006040518083038185875af1925050503d80600081146111cd576040519150601f19603f3d011682016040523d82523d6000602084013e6111d2565b606091505b5050905080611216576040517f08c379a000000000000000000000000000000000000000000000000000000000815260040161120d906130b7565b60405180910390fd5b816003600082825403925050819055505050565b600260009054906101000a900473ffffffffffffffffffffffffffffffffffffffff1673ffffffffffffffffffffffffffffffffffffffff163373ffffffffffffffffffffffffffffffffffffffff16146112ba576040517f08c379a00000000000000000000000000000000000000000000000000000000081526004016112b190613037565b60405180910390fd5b6112c460016123fa565b60006112d060016123c5565b90506040518060c0016040528082815260200188888080601f016020809104026020016040519081016040528093929190818152602001838380828437600081840152601f19601f82011690508083019250505050505050815260200186868080601f016020809104026020016040519081016040528093929190818152602001838380828437600081840152601f19601f82011690508083019250505050505050815260200160028081111561138a5761138961357e565b5b815260200184815260200183815250600560008381526020019081526020016000206000820151816000015560208201518160010190805190602001906113d292919061246a565b5060408201518160020190805190602001906113ef92919061246a565b5060608201518160030160006101000a81548160ff0219169083600281111561141b5761141a61357e565b5b02179055506080820151816004015560a08201518160050155905050807f1d26cfb076fd58c1fa5695bb34e5556995a0aa34ecc601438f9957d6a71439a36005600084815260200190815260200160002060010160056000858152602001908152602001600020600201600560008681526020019081526020016000206004015460056000878152602001908152602001600020600501546040516114c39493929190612fc4565b60405180910390a250505050505050565b6114dc6124f0565b600060056000848152602001908152602001600020600001541415611536576040517f08c379a000000000000000000000000000000000000000000000000000000000815260040161152d90613097565b60405180910390fd5b600560008381526020019081526020016000206040518060c00160405290816000820154815260200160018201805461156e906134a5565b80601f016020809104026020016040519081016040528092919081815260200182805461159a906134a5565b80156115e75780601f106115bc576101008083540402835291602001916115e7565b820191906000526020600020905b8154815290600101906020018083116115ca57829003601f168201915b50505050508152602001600282018054611600906134a5565b80601f016020809104026020016040519081016040528092919081815260200182805461162c906134a5565b80156116795780601f1061164e57610100808354040283529160200191611679565b820191906000526020600020905b81548152906001019060200180831161165c57829003601f168201915b505050505081526020016003820160009054906101000a900460ff1660028111156116a7576116a661357e565b5b60028111156116b9576116b861357e565b5b8152602001600482015481526020016005820154815250509050919050565b6116e0612538565b6116e98261232a565b611728576040517f08c379a000000000000000000000000000000000000000000000000000000000815260040161171f90613137565b60405180910390fd5b600460008373ffffffffffffffffffffffffffffffffffffffff1673ffffffffffffffffffffffffffffffffffffffff1681526020019081526020016000206040518060e00160405290816000820160009054906101000a900473ffffffffffffffffffffffffffffffffffffffff1673ffffffffffffffffffffffffffffffffffffffff1673ffffffffffffffffffffffffffffffffffffffff1681526020016001820180546117d8906134a5565b80601f0160208091040260200160405190810160405280929190818152602001828054611804906134a5565b80156118515780601f1061182657610100808354040283529160200191611851565b820191906000526020600020905b81548152906001019060200180831161183457829003601f168201915b5050505050815260200160028201805461186a906134a5565b80601f0160208091040260200160405190810160405280929190818152602001828054611896906134a5565b80156118e35780601f106118b8576101008083540402835291602001916118e3565b820191906000526020600020905b8154815290600101906020018083116118c657829003601f168201915b505050505081526020016003820154815260200160048201548152602001600582015481526020016006820154815250509050919050565b6000600260009054906101000a900473ffffffffffffffffffffffffffffffffffffffff1673ffffffffffffffffffffffffffffffffffffffff163373ffffffffffffffffffffffffffffffffffffffff16146119ad576040517f08c379a00000000000000000000000000000000000000000000000000000000081526004016119a490613037565b60405180910390fd5b47905090565b6000600260009054906101000a900473ffffffffffffffffffffffffffffffffffffffff1673ffffffffffffffffffffffffffffffffffffffff163373ffffffffffffffffffffffffffffffffffffffff1614611a45576040517f08c379a0000000000000000000000000000000000000000000000000000000008152600401611a3c90613037565b60405180910390fd5b600354905090565b6000600260009054906101000a900473ffffffffffffffffffffffffffffffffffffffff16905090565b600260009054906101000a900473ffffffffffffffffffffffffffffffffffffffff1673ffffffffffffffffffffffffffffffffffffffff163373ffffffffffffffffffffffffffffffffffffffff1614611b07576040517f08c379a0000000000000000000000000000000000000000000000000000000008152600401611afe90613037565b60405180910390fd5b600060056000848152602001908152602001600020600001541415611b61576040517f08c379a0000000000000000000000000000000000000000000000000000000008152600401611b58906131d7565b60405180910390fd5b806005600084815260200190815260200160002060030160006101000a81548160ff02191690836002811115611b9a57611b9961357e565b5b0217905550817fa2038badc9c4004a10f632052c54b0011bb307c2cadc65f22071f61ffd10663382604051611bcf9190612f72565b60405180910390a25050565b611be43361232a565b611c23576040517f08c379a0000000000000000000000000000000000000000000000000000000008152600401611c1a90613137565b60405180910390fd5b34600460003373ffffffffffffffffffffffffffffffffffffffff1673ffffffffffffffffffffffffffffffffffffffff1681526020019081526020016000206004016000828254611c7591906132fc565b925050819055503373ffffffffffffffffffffffffffffffffffffffff167fe1fffcc4923d04b559f4d29a8bfc6cda04eb5b0d3c460751c2402c5c5cc9109c34604051611cc2919061325b565b60405180910390a2565b600260009054906101000a900473ffffffffffffffffffffffffffffffffffffffff1673ffffffffffffffffffffffffffffffffffffffff163373ffffffffffffffffffffffffffffffffffffffff1614611d5c576040517f08c379a0000000000000000000000000000000000000000000000000000000008152600401611d5390613037565b60405180910390fd5b600060056000898152602001908152602001600020600001541415611db6576040517f08c379a0000000000000000000000000000000000000000000000000000000008152600401611dad90613117565b60405180910390fd5b600060056000898152602001908152602001600020905060008787905014611ded578686826001019190611deb92919061258b565b505b60008585905014611e0d578484826002019190611e0b92919061258b565b505b6000831115611e20578281600401819055505b6000821115611e33578181600501819055505b877f10e3e3a462a9f4c167783d47719e646c87b1a773b083fb5eef04a076e887079c826001018360020184600401548560050154604051611e779493929190612fc4565b60405180910390a25050505050505050565b611e923361232a565b611ed1576040517f08c379a0000000000000000000000000000000000000000000000000000000008152600401611ec890613137565b60405180910390fd5b6000600460003373ffffffffffffffffffffffffffffffffffffffff1673ffffffffffffffffffffffffffffffffffffffff1681526020019081526020016000206005015490506000600460003373ffffffffffffffffffffffffffffffffffffffff1673ffffffffffffffffffffffffffffffffffffffff16815260200190815260200160002060040154905060008211611fa2576040517f08c379a0000000000000000000000000000000000000000000000000000000008152600401611f99906131b7565b60405180910390fd5b81811015611fe5576040517f08c379a0000000000000000000000000000000000000000000000000000000008152600401611fdc906131f7565b60405180910390fd5b81600460003373ffffffffffffffffffffffffffffffffffffffff1673ffffffffffffffffffffffffffffffffffffffff16815260200190815260200160002060040160008282540392505081905550816003600082825461204791906132fc565b925050819055506000600460003373ffffffffffffffffffffffffffffffffffffffff1673ffffffffffffffffffffffffffffffffffffffff168152602001908152602001600020600501819055503373ffffffffffffffffffffffffffffffffffffffff167f3a2d0e41c506b136330c6e5e0295ccbf0966daece99bfe7c89020cc01dbfb8d6836040516120dc919061325b565b60405180910390a25050565b6120f0612410565b6120f93361232a565b612138576040517f08c379a000000000000000000000000000000000000000000000000000000000815260040161212f90613137565b60405180910390fd5b6000600460003373ffffffffffffffffffffffffffffffffffffffff1673ffffffffffffffffffffffffffffffffffffffff168152602001908152602001600020600401549050818110156121c2576040517f08c379a00000000000000000000000000000000000000000000000000000000081526004016121b990613157565b60405180910390fd5b81600460003373ffffffffffffffffffffffffffffffffffffffff1673ffffffffffffffffffffffffffffffffffffffff1681526020019081526020016000206004016000828254039250508190555060003373ffffffffffffffffffffffffffffffffffffffff168360405161223890612f20565b60006040518083038185875af1925050503d8060008114612275576040519150601f19603f3d011682016040523d82523d6000602084013e61227a565b606091505b50509050806122be576040517f08c379a00000000000000000000000000000000000000000000000000000000081526004016122b5906130b7565b60405180910390fd5b3373ffffffffffffffffffffffffffffffffffffffff167f8777844761eb456b028cf7f87fc8dcb146ad8eeafbc6f80f2d006e5cd9e5a74584604051612304919061325b565b60405180910390a25050612316612460565b50565b600061232560016123c5565b905090565b60008073ffffffffffffffffffffffffffffffffffffffff16600460008473ffffffffffffffffffffffffffffffffffffffff1673ffffffffffffffffffffffffffffffffffffffff16815260200190815260200160002060000160009054906101000a900473ffffffffffffffffffffffffffffffffffffffff1673ffffffffffffffffffffffffffffffffffffffff1614159050919050565b600081600001549050919050565b600080603c846123e39190613352565b905080836123f19190613383565b91505092915050565b6001816000016000828254019250508190555050565b60026000541415612456576040517f08c379a000000000000000000000000000000000000000000000000000000000815260040161244d90613177565b60405180910390fd5b6002600081905550565b6001600081905550565b828054612476906134a5565b90600052602060002090601f01602090048101928261249857600085556124df565b82601f106124b157805160ff19168380011785556124df565b828001600101855582156124df579182015b828111156124de5782518255916020019190600101906124c3565b5b5090506124ec9190612611565b5090565b6040518060c00160405280600081526020016060815260200160608152602001600060028111156125245761252361357e565b5b815260200160008152602001600081525090565b6040518060e00160405280600073ffffffffffffffffffffffffffffffffffffffff1681526020016060815260200160608152602001600081526020016000815260200160008152602001600081525090565b828054612597906134a5565b90600052602060002090601f0160209004810192826125b95760008555612600565b82601f106125d257803560ff1916838001178555612600565b82800160010185558215612600579182015b828111156125ff5782358255916020019190600101906125e4565b5b50905061260d9190612611565b5090565b5b8082111561262a576000816000905550600101612612565b5090565b60008135905061263d816139c9565b92915050565b600081359050612652816139e0565b92915050565b60008083601f84011261266e5761266d61363f565b5b8235905067ffffffffffffffff81111561268b5761268a61363a565b5b6020830191508360018202830111156126a7576126a6613644565b5b9250929050565b6000813590506126bd816139f0565b92915050565b6000602082840312156126d9576126d861364e565b5b60006126e78482850161262e565b91505092915050565b6000602082840312156127065761270561364e565b5b600061271484828501612643565b91505092915050565b600080600080604085870312156127375761273661364e565b5b600085013567ffffffffffffffff81111561275557612754613649565b5b61276187828801612658565b9450945050602085013567ffffffffffffffff81111561278457612783613649565b5b61279087828801612658565b925092505092959194509250565b600080600080600080608087890312156127bb576127ba61364e565b5b600087013567ffffffffffffffff8111156127d9576127d8613649565b5b6127e589828a01612658565b9650965050602087013567ffffffffffffffff81111561280857612807613649565b5b61281489828a01612658565b9450945050604061282789828a016126ae565b925050606061283889828a016126ae565b9150509295509295509295565b60006020828403121561285b5761285a61364e565b5b6000612869848285016126ae565b91505092915050565b600080604083850312156128895761288861364e565b5b6000612897858286016126ae565b92505060206128a885828601612643565b9150509250929050565b600080600080600080600060a0888a0312156128d1576128d061364e565b5b60006128df8a828b016126ae565b975050602088013567ffffffffffffffff811115612900576128ff613649565b5b61290c8a828b01612658565b9650965050604088013567ffffffffffffffff81111561292f5761292e613649565b5b61293b8a828b01612658565b9450945050606061294e8a828b016126ae565b925050608061295f8a828b016126ae565b91505092959891949750929550565b600061297a8383612d3f565b905092915050565b61298b81613411565b82525050565b61299a81613411565b82525050565b60006129ab8261329b565b6129b581856132be565b9350836020820285016129c785613276565b8060005b85811015612a0357848403895281516129e4858261296e565b94506129ef836132b1565b925060208a019950506001810190506129cb565b50829750879550505050505092915050565b612a1e81613460565b82525050565b612a2d81613460565b82525050565b6000612a3e826132a6565b612a4881856132da565b9350612a58818560208601613472565b612a6181613653565b840191505092915050565b60008154612a79816134a5565b612a8381866132eb565b94506001821660008114612a9e5760018114612ab057612ae3565b60ff1983168652602086019350612ae3565b612ab985613286565b60005b83811015612adb57815481890152600182019150602081019050612abc565b808801955050505b50505092915050565b6000612af96013836132eb565b9150612b0482613664565b602082019050919050565b6000612b1c6026836132eb565b9150612b278261368d565b604082019050919050565b6000612b3f601e836132eb565b9150612b4a826136dc565b602082019050919050565b6000612b62602a836132eb565b9150612b6d82613705565b604082019050919050565b6000612b856013836132eb565b9150612b9082613754565b602082019050919050565b6000612ba86010836132eb565b9150612bb38261377d565b602082019050919050565b6000612bcb601d836132eb565b9150612bd6826137a6565b602082019050919050565b6000612bee601a836132eb565b9150612bf9826137cf565b602082019050919050565b6000612c116021836132eb565b9150612c1c826137f8565b604082019050919050565b6000612c346014836132eb565b9150612c3f82613847565b602082019050919050565b6000612c576000836132cf565b9150612c6282613870565b600082019050919050565b6000612c7a6021836132eb565b9150612c8582613873565b604082019050919050565b6000612c9d601f836132eb565b9150612ca8826138c2565b602082019050919050565b6000612cc0601a836132eb565b9150612ccb826138eb565b602082019050919050565b6000612ce36018836132eb565b9150612cee82613914565b602082019050919050565b6000612d066021836132eb565b9150612d118261393d565b604082019050919050565b6000612d29601e836132eb565b9150612d348261398c565b602082019050919050565b600060c083016000830151612d576000860182612f02565b5060208301518482036020860152612d6f8282612a33565b91505060408301518482036040860152612d898282612a33565b9150506060830151612d9e6060860182612a15565b506080830151612db16080860182612f02565b5060a0830151612dc460a0860182612f02565b508091505092915050565b600060c083016000830151612de76000860182612f02565b5060208301518482036020860152612dff8282612a33565b91505060408301518482036040860152612e198282612a33565b9150506060830151612e2e6060860182612a15565b506080830151612e416080860182612f02565b5060a0830151612e5460a0860182612f02565b508091505092915050565b600060e083016000830151612e776000860182612982565b5060208301518482036020860152612e8f8282612a33565b91505060408301518482036040860152612ea98282612a33565b9150506060830151612ebe6060860182612f02565b506080830151612ed16080860182612f02565b5060a0830151612ee460a0860182612f02565b5060c0830151612ef760c0860182612f02565b508091505092915050565b612f0b81613456565b82525050565b612f1a81613456565b82525050565b6000612f2b82612c4a565b9150819050919050565b6000602082019050612f4a6000830184612991565b92915050565b60006020820190508181036000830152612f6a81846129a0565b905092915050565b6000602082019050612f876000830184612a24565b92915050565b60006040820190508181036000830152612fa78185612a6c565b90508181036020830152612fbb8184612a6c565b90509392505050565b60006080820190508181036000830152612fde8187612a6c565b90508181036020830152612ff28186612a6c565b90506130016040830185612f11565b61300e6060830184612f11565b95945050505050565b6000602082019050818103600083015261303081612aec565b9050919050565b6000602082019050818103600083015261305081612b0f565b9050919050565b6000602082019050818103600083015261307081612b32565b9050919050565b6000602082019050818103600083015261309081612b55565b9050919050565b600060208201905081810360008301526130b081612b78565b9050919050565b600060208201905081810360008301526130d081612b9b565b9050919050565b600060208201905081810360008301526130f081612bbe565b9050919050565b6000602082019050818103600083015261311081612be1565b9050919050565b6000602082019050818103600083015261313081612c04565b9050919050565b6000602082019050818103600083015261315081612c27565b9050919050565b6000602082019050818103600083015261317081612c6d565b9050919050565b6000602082019050818103600083015261319081612c90565b9050919050565b600060208201905081810360008301526131b081612cb3565b9050919050565b600060208201905081810360008301526131d081612cd6565b9050919050565b600060208201905081810360008301526131f081612cf9565b9050919050565b6000602082019050818103600083015261321081612d1c565b9050919050565b600060208201905081810360008301526132318184612dcf565b905092915050565b600060208201905081810360008301526132538184612e5f565b905092915050565b60006020820190506132706000830184612f11565b92915050565b6000819050602082019050919050565b60008190508160005260206000209050919050565b600081519050919050565b600081519050919050565b6000602082019050919050565b600082825260208201905092915050565b600081905092915050565b600082825260208201905092915050565b600082825260208201905092915050565b600061330782613456565b915061331283613456565b9250827fffffffffffffffffffffffffffffffffffffffffffffffffffffffffffffffff0382111561334757613346613520565b5b828201905092915050565b600061335d82613456565b915061336883613456565b9250826133785761337761354f565b5b828204905092915050565b600061338e82613456565b915061339983613456565b9250817fffffffffffffffffffffffffffffffffffffffffffffffffffffffffffffffff04831182151516156133d2576133d1613520565b5b828202905092915050565b60006133e882613456565b91506133f383613456565b92508282101561340657613405613520565b5b828203905092915050565b600061341c82613436565b9050919050565b6000819050613431826139b5565b919050565b600073ffffffffffffffffffffffffffffffffffffffff82169050919050565b6000819050919050565b600061346b82613423565b9050919050565b60005b83811015613490578082015181840152602081019050613475565b8381111561349f576000848401525b50505050565b600060028204905060018216806134bd57607f821691505b602082108114156134d1576134d06135ad565b5b50919050565b60006134e282613456565b91507fffffffffffffffffffffffffffffffffffffffffffffffffffffffffffffffff82141561351557613514613520565b5b600182019050919050565b7f4e487b7100000000000000000000000000000000000000000000000000000000600052601160045260246000fd5b7f4e487b7100000000000000000000000000000000000000000000000000000000600052601260045260246000fd5b7f4e487b7100000000000000000000000000000000000000000000000000000000600052602160045260246000fd5b7f4e487b7100000000000000000000000000000000000000000000000000000000600052602260045260246000fd5b7f4e487b7100000000000000000000000000000000000000000000000000000000600052603260045260246000fd5b7f4e487b7100000000000000000000000000000000000000000000000000000000600052604160045260246000fd5b600080fd5b600080fd5b600080fd5b600080fd5b600080fd5b6000601f19601f8301169050919050565b7f5573657220616c72656164792065786973742100000000000000000000000000600082015250565b7f4f6e6c7920746865206f776e65722063616e2063616c6c20746869732066756e60008201527f6374696f6e210000000000000000000000000000000000000000000000000000602082015250565b7f557365722068617320616c72656164792072656e746564206120636172210000600082015250565b7f496e73756666696369656e7420636f6e74726163742062616c616e636520746f60008201527f2077697468647261772100000000000000000000000000000000000000000000602082015250565b7f43617220646f6573206e6f742065786973742100000000000000000000000000600082015250565b7f5472616e73666572206661696c65642100000000000000000000000000000000600082015250565b7f436172206973206e6f7420417661696c61626c6520666f722075736521000000600082015250565b7f5573657220686173206f75747374616e64696e67206465627421000000000000600082015250565b7f436172207769746820676976656e20494420646f6573206e6f7420657869737460008201527f2100000000000000000000000000000000000000000000000000000000000000602082015250565b7f5573657220646f6573206e6f7420657869737421000000000000000000000000600082015250565b50565b7f496e73756666696369656e742062616c616e636520746f20776974686472617760008201527f2100000000000000000000000000000000000000000000000000000000000000602082015250565b7f5265656e7472616e637947756172643a207265656e7472616e742063616c6c00600082015250565b7f5573657220686173206e6f742072656e74656420612063617221000000000000600082015250565b7f5573657220686173206e6f206465627420746f20706179210000000000000000600082015250565b7f436172207769746820676976656e20696420646f6573206e6f7420657869737460008201527f2100000000000000000000000000000000000000000000000000000000000000602082015250565b7f557365722068617320756e73756666696369656e742062616c616e6365210000600082015250565b600381106139c6576139c561357e565b5b50565b6139d281613411565b81146139dd57600080fd5b50565b600381106139ed57600080fd5b50565b6139f981613456565b8114613a0457600080fd5b5056fea26469706673582212204e36d3eca25279d6121b7a247de3d81acaa491d324fcf5e85a4e06de4b8e7ae764736f6c63430008070033",
	"immutableReferences": {},
	"source": "// SPDX-License-Identifier: MIT\npragma solidity ^0.8.7;\n\nimport \"@openzeppelin/contracts/utils/Counters.sol\";\nimport \"@openzeppelin/contracts/security/ReentrancyGuard.sol\";\n\ncontract CarRentalPlatform is ReentrancyGuard {\n  //DATA\n\n  //Counter\n  using Counters for Counters.Counter;\n  Counters.Counter private  _counter;\n\n  //Owner\n  address private owner;\n\n  //totalPayments\n  uint private totalPayments;\n\n  //user struct\n  struct User {\n    address walletAddress;\n    string name;\n    string lastname;\n    uint rentedCarId;\n    uint balance;\n    uint debt;\n    uint start;\n  }\n\n  //car struct\n  struct Car {\n    uint id;\n    string name;\n    string imgUrl;\n    Status status;\n    uint rentFee;\n    uint saleFee;\n  }\n\n  //enum to indicate the status of the car\n  enum Status {\n    Retired,\n    InUse,\n    Available\n  }\n  //events\n  event CarAdded(uint indexed id, string name, string imgUrl, uint rentFee, uint saleFee);\n    //indexed kullanmamzn nedeni id'e gre filter etmek isteyeceiz.\n  event CarMetadataEdited(uint indexed id, string name, string imgUrl, uint rentFee, uint saleFee);\n  event CarStatusEdited(uint indexed id, Status status);\n  event UserAdded(address indexed walletAddress, string name, string lastname);\n  event Deposit(address indexed walletAddress, uint amount);\n  event CheckOut(address indexed walletAddress, uint indexed CarId);\n  event CheckIn(address indexed walletAddress, uint indexed CarId);\n  event PaymentMade(address indexed walletAddress, uint amount);\n  event BalanceWithdraw(address indexed walletAddress, uint amount);\n\n  //user mapping\n  mapping(address => User) private users;\n\n  //car mapping\n  mapping(uint => Car) private cars;\n\n  //constructor\n  constructor() {\n    owner = msg.sender;\n    totalPayments = 0;\n  }\n\n  //MODIFIERS\n  //onlyOwner\n  modifier onlyOwner(){\n    require(msg.sender == owner, \"Only the owner can call this function!\" );\n    _;\n  }\n\n  //FUNCTIONS\n  //Execute FUNCTIONS\n\n  //setOwner #onlyOwner\n  function setOwner(address _newOwner) external onlyOwner(){\n    owner = _newOwner;\n  }\n\n  //addUser #nonExistingCar\n  //calldata kullanmamzn nedeni name'i deitirmeyeceiz sadece okuyacak(read-only). bylece gasfee daha dk oluyor.\n  function addUser(string calldata name, string calldata lastname) external {\n    require(!isUser(msg.sender), \"User already exist!\");\n    users[msg.sender] = User(msg.sender, name, lastname, 0,0,0,0);\n\n    emit UserAdded(msg.sender, users[msg.sender].name, users[msg.sender].lastname);\n  }\n\n  //addCar #onlyOwner #nonExistingCar\n  function addCar(string calldata name, string calldata url, uint rent, uint sale) external onlyOwner(){\n    _counter.increment();\n    uint counter = _counter.current();\n    cars[counter] = Car(counter, name, url, Status.Available, rent, sale);\n\n    emit CarAdded(counter, cars[counter].name, cars[counter].imgUrl, cars[counter].rentFee, cars[counter].saleFee);\n  }\n  //editCarMetadata #onlyOwner #existingCar\n  function editCarMetadata(uint id, string calldata name, string calldata imgUrl, uint rentFee, uint saleFee) external onlyOwner(){\n    require(cars[id].id != 0, \"Car with given ID does not exist!\" );\n    Car storage car = cars[id];\n    if(bytes(name).length != 0) {\n      car.name = name;\n    }\n    if(bytes(imgUrl).length != 0) {\n      car.imgUrl = imgUrl;\n    }\n    if(rentFee > 0) {\n      car.rentFee = rentFee;\n    }\n    if(saleFee > 0) {\n      car.saleFee = saleFee;\n    }\n\n    emit CarMetadataEdited(id, car.name, car.imgUrl, car.rentFee, car.saleFee);\n  }\n  //editCarStatus #onlyOwner #existingCar\n  function editCarStatus(uint id, Status status) external onlyOwner() {\n    require(cars[id].id != 0, \"Car with given id does not exist!\" );\n    cars[id].status = status;\n\n    emit CarStatusEdited(id, status);\n  }\n  //checkOut #existingUser #isCarAvailable #userHasNotRentedACar #userHasNoDebt\n  function checkOut(uint id) external {\n    require(isUser(msg.sender), \"User does not exist!\");\n    require(cars[id].status == Status.Available, \"Car is not Available for use!\");\n    require(users[msg.sender].rentedCarId == 0, \"User has already rented a car!\");\n    require(users[msg.sender].debt == 0, \"User has outstanding debt!\");\n\n    users[msg.sender].start = block.timestamp;// zaman saniye olarak ald.\n    users[msg.sender].rentedCarId = id;\n    cars[id].status = Status.InUse;\n\n    emit CheckOut(msg.sender, id);\n  }\n\n  //checkIn #existingUser #userHasRentedACar\n  function checkIn() external {\n    require(isUser(msg.sender), \"User does not exist!\");\n    uint rentedCarId = users[msg.sender].rentedCarId;\n    require(rentedCarId != 0, \"User has not rented a car!\");\n\n    uint usedSeconds = block.timestamp - users[msg.sender].start;\n    uint rentFee = cars[rentedCarId].rentFee;\n    users[msg.sender].debt += calculateDebt(usedSeconds, rentFee);\n//ara checkin yaptktan sonra user'n rentedcar ve sresini 0'lyoruz.ve ara artk dier user'lar iin msait diyoruz.\n    users[msg.sender].rentedCarId = 0;   \n    users[msg.sender].start = 0;\n    cars[rentedCarId].status = Status.Available;\n\n    emit CheckIn(msg.sender, rentedCarId); \n  }\n  //deposit #existingUser\n  function deposit() external payable {\n    require(isUser(msg.sender), \"User does not exist!\");\n    users[msg.sender].balance += msg.value;\n\n    emit Deposit(msg.sender, msg.value);\n  }\n\n  //makePayment #existingUser #existingDebt #suffiecientBalance\n  function makePayment() external payable {\n    require(isUser(msg.sender), \"User does not exist!\");\n    uint debt = users[msg.sender].debt;\n    uint balance = users[msg.sender].balance;\n\n    require(debt >0, \"User has no debt to pay!\");\n    require(balance >= debt, \"User has unsufficient balance!\");\n\n    unchecked {\n      users[msg.sender].balance -= debt;\n    }\n    totalPayments += debt;\n    users[msg.sender].debt = 0;\n\n    emit PaymentMade(msg.sender, debt);\n  }\n\n  //withdrawBalance #existingUser\n  function withdrawBalance (uint amount) external nonReentrant()  {\n    require(isUser(msg.sender),\"User does not exist!\");\n    uint balance = users[msg.sender].balance;\n    require(balance >= amount, \"Insufficient balance to withdraw!\");\n\n    unchecked {\n      users[msg.sender].balance -= amount;\n    }\n\n    (bool success, ) = msg.sender.call{value: amount}(\"\");\n    require(success, \"Transfer failed!\");\n\n    emit BalanceWithdraw(msg.sender, amount);\n  }\n\n  //withdrawOwnerBalance #onlyOwner\n  function withdrawOwnerBalance(uint amount) external onlyOwner {\n      require(totalPayments >= amount, \"Insufficient contract balance to withdraw!\");\n\n      (bool success, ) = owner.call{value: amount}(\"\");\n      require(success, \"Transfer failed!\");\n\n      unchecked {\n        totalPayments -= amount;\n      }\n  }\n\n  //Query Functions\n\n  //getOwner\n  function getOwner() external view returns(address) {\n    return owner;\n  }\n\n  //isUser\n  function isUser(address walletAddress) private view returns(bool) {\n      return users[walletAddress].walletAddress != address(0);\n  }\n\n  //getUser #existingUser\n  function getUser(address walletAddress) external view returns(User memory) {\n    require(isUser(walletAddress), \"User does not exist!\");\n    return users[walletAddress];\n  } \n\n  //getCar #existingCar\n  function getCar(uint id) external view returns(Car memory){\n    require(cars[id].id != 0, \"Car does not exist!\");\n    return cars[id];\n  }\n\n  //getCarByStatus\n  function getCarByStatus(Status _status) external view returns(Car[] memory) {\n    uint count = 0;\n    uint length = _counter.current();\n    for(uint i = 1; i <= length; i++){\n      if(cars[i].status ==  _status){\n        count++;\n      }\n    }\n    Car[] memory carsWithStatus = new Car[](count);\n    count = 0;\n    for(uint i = 1; i <= length; i++){\n      if(cars[i].status == _status){\n        carsWithStatus[count] = cars[i];\n        count++;\n      }\n    }\n    return carsWithStatus;\n  }\n\n  //calculateDebt\n  function calculateDebt(uint usedSeconds, uint rentFee) private pure returns(uint) {\n    uint usedMinutes = usedSeconds / 60;\n    return rentFee * usedMinutes;\n  }\n\n  //getCurrentCount\n  function getCurrentCount() external view returns(uint) {\n    return _counter.current();\n  }\n\n  //getContractBalance #onlyOwner\n  function getContractBalance() external view \n  onlyOwner returns(uint) {\n    return address(this).balance;\n  }\n\n  //getTotalPayment #onlyOwner\n  function getTotalPayments() external view onlyOwner returns(uint) {\n    return totalPayments;\n  }\n}\n",
	"sourcePath": "/Users/emrekarayaman/Code/car-rental-dapp/contracts/bsc/CarRentalPlatform.sol",
	"compiler": {
		"name": "solc",
		"version": "0.8.7+commit.e28d00a7.Emscripten.clang"
	},
	"schemaVersion": "3.4.14",
	"updatedAt": "2023-06-18T12:48:30.924Z",
	"networkType": "ethereum",
	"devdoc": {
		"kind": "dev",
		"methods": {},
		"version": 1
	},
	"userdoc": {
		"kind": "user",
		"methods": {},
		"version": 1
	},
	"db": {
		"callBytecode": {
			"id": "0x9a167eac745cfbc3b7e541c6a8700c328abdc20ad3a065e9e356224681b632a2"
		},
		"createBytecode": {
			"id": "0x272ae0ff157f6a088d5ee0b09cd810d9b19d9b3175ba54e7cc52ce095432520b"
		},
		"contract": {
			"id": "0x25d45139f1c5c57a5aa86f92936f19cc1cae6e547dcd523e9b8e81e854c03353"
		}
	}
}