{
	"contractName": "CarRentalPlatform",
	"abi": [
		{
			"inputs": [],
			"stateMutability": "nonpayable",
			"type": "constructor"
		},
		{
			"anonymous": false,
			"inputs": [
				{
					"indexed": true,
					"internalType": "uint256",
					"name": "id",
					"type": "uint256"
				},
				{
					"indexed": false,
					"internalType": "string",
					"name": "name",
					"type": "string"
				},
				{
					"indexed": false,
					"internalType": "string",
					"name": "imgUrl",
					"type": "string"
				},
				{
					"indexed": false,
					"internalType": "uint256",
					"name": "rentFee",
					"type": "uint256"
				},
				{
					"indexed": false,
					"internalType": "uint256",
					"name": "saleFee",
					"type": "uint256"
				}
			],
			"name": "CarCreated",
			"type": "event"
		},
		{
			"anonymous": false,
			"inputs": [
				{
					"indexed": true,
					"internalType": "uint256",
					"name": "id",
					"type": "uint256"
				},
				{
					"indexed": false,
					"internalType": "string",
					"name": "name",
					"type": "string"
				},
				{
					"indexed": false,
					"internalType": "string",
					"name": "imgUrl",
					"type": "string"
				},
				{
					"indexed": false,
					"internalType": "uint256",
					"name": "rentFee",
					"type": "uint256"
				},
				{
					"indexed": false,
					"internalType": "uint256",
					"name": "saleFee",
					"type": "uint256"
				}
			],
			"name": "CarMetaDataUpdated",
			"type": "event"
		},
		{
			"anonymous": false,
			"inputs": [
				{
					"indexed": true,
					"internalType": "uint256",
					"name": "id",
					"type": "uint256"
				},
				{
					"indexed": false,
					"internalType": "enum CarRentalPlatform.Status",
					"name": "status",
					"type": "uint8"
				}
			],
			"name": "CarStatusUpdated",
			"type": "event"
		},
		{
			"anonymous": false,
			"inputs": [
				{
					"indexed": true,
					"internalType": "address",
					"name": "walletAddress",
					"type": "address"
				},
				{
					"indexed": true,
					"internalType": "uint256",
					"name": "carId",
					"type": "uint256"
				}
			],
			"name": "CheckIn",
			"type": "event"
		},
		{
			"anonymous": false,
			"inputs": [
				{
					"indexed": true,
					"internalType": "address",
					"name": "walletAddress",
					"type": "address"
				},
				{
					"indexed": true,
					"internalType": "uint256",
					"name": "carId",
					"type": "uint256"
				}
			],
			"name": "CheckOut",
			"type": "event"
		},
		{
			"anonymous": false,
			"inputs": [
				{
					"indexed": true,
					"internalType": "address",
					"name": "walletAddress",
					"type": "address"
				},
				{
					"indexed": false,
					"internalType": "uint256",
					"name": "amount",
					"type": "uint256"
				}
			],
			"name": "Deposit",
			"type": "event"
		},
		{
			"anonymous": false,
			"inputs": [
				{
					"indexed": true,
					"internalType": "address",
					"name": "walletAddress",
					"type": "address"
				},
				{
					"indexed": false,
					"internalType": "uint256",
					"name": "amount",
					"type": "uint256"
				}
			],
			"name": "PaymentMade",
			"type": "event"
		},
		{
			"anonymous": false,
			"inputs": [
				{
					"indexed": true,
					"internalType": "address",
					"name": "walletAddress",
					"type": "address"
				},
				{
					"indexed": false,
					"internalType": "string",
					"name": "name",
					"type": "string"
				},
				{
					"indexed": false,
					"internalType": "string",
					"name": "lastName",
					"type": "string"
				}
			],
			"name": "UserCreated",
			"type": "event"
		},
		{
			"anonymous": false,
			"inputs": [
				{
					"indexed": true,
					"internalType": "address",
					"name": "walletAddress",
					"type": "address"
				},
				{
					"indexed": false,
					"internalType": "uint256",
					"name": "amount",
					"type": "uint256"
				}
			],
			"name": "Withdraw",
			"type": "event"
		},
		{
			"inputs": [
				{
					"internalType": "address",
					"name": "_newOwner",
					"type": "address"
				}
			],
			"name": "setOwner",
			"outputs": [],
			"stateMutability": "nonpayable",
			"type": "function"
		},
		{
			"inputs": [
				{
					"internalType": "string",
					"name": "name",
					"type": "string"
				},
				{
					"internalType": "string",
					"name": "lastName",
					"type": "string"
				}
			],
			"name": "addUser",
			"outputs": [],
			"stateMutability": "nonpayable",
			"type": "function"
		},
		{
			"inputs": [
				{
					"internalType": "string",
					"name": "name",
					"type": "string"
				},
				{
					"internalType": "string",
					"name": "imgUrl",
					"type": "string"
				},
				{
					"internalType": "uint256",
					"name": "rentFee",
					"type": "uint256"
				},
				{
					"internalType": "uint256",
					"name": "saleFee",
					"type": "uint256"
				}
			],
			"name": "addCar",
			"outputs": [],
			"stateMutability": "nonpayable",
			"type": "function"
		},
		{
			"inputs": [
				{
					"internalType": "uint256",
					"name": "id",
					"type": "uint256"
				},
				{
					"internalType": "string",
					"name": "name",
					"type": "string"
				},
				{
					"internalType": "string",
					"name": "imgUrl",
					"type": "string"
				},
				{
					"internalType": "uint256",
					"name": "rentFee",
					"type": "uint256"
				},
				{
					"internalType": "uint256",
					"name": "saleFee",
					"type": "uint256"
				}
			],
			"name": "updateCarMetaData",
			"outputs": [],
			"stateMutability": "nonpayable",
			"type": "function"
		},
		{
			"inputs": [
				{
					"internalType": "uint256",
					"name": "id",
					"type": "uint256"
				},
				{
					"internalType": "enum CarRentalPlatform.Status",
					"name": "status",
					"type": "uint8"
				}
			],
			"name": "updateCarStatus",
			"outputs": [],
			"stateMutability": "nonpayable",
			"type": "function"
		},
		{
			"inputs": [
				{
					"internalType": "uint256",
					"name": "id",
					"type": "uint256"
				}
			],
			"name": "checkOut",
			"outputs": [],
			"stateMutability": "nonpayable",
			"type": "function"
		},
		{
			"inputs": [],
			"name": "checkIn",
			"outputs": [],
			"stateMutability": "nonpayable",
			"type": "function"
		},
		{
			"inputs": [],
			"name": "deposit",
			"outputs": [],
			"stateMutability": "payable",
			"type": "function",
			"payable": true
		},
		{
			"inputs": [],
			"name": "makePayment",
			"outputs": [],
			"stateMutability": "nonpayable",
			"type": "function"
		},
		{
			"inputs": [
				{
					"internalType": "uint256",
					"name": "amount",
					"type": "uint256"
				}
			],
			"name": "withdraw",
			"outputs": [],
			"stateMutability": "nonpayable",
			"type": "function"
		},
		{
			"inputs": [
				{
					"internalType": "uint256",
					"name": "amount",
					"type": "uint256"
				}
			],
			"name": "withdrawOwnerBalance",
			"outputs": [],
			"stateMutability": "nonpayable",
			"type": "function"
		},
		{
			"inputs": [],
			"name": "getOwner",
			"outputs": [
				{
					"internalType": "address",
					"name": "",
					"type": "address"
				}
			],
			"stateMutability": "view",
			"type": "function",
			"constant": true
		},
		{
			"inputs": [
				{
					"internalType": "address",
					"name": "walletAddress",
					"type": "address"
				}
			],
			"name": "getUser",
			"outputs": [
				{
					"components": [
						{
							"internalType": "address",
							"name": "walletAddress",
							"type": "address"
						},
						{
							"internalType": "string",
							"name": "name",
							"type": "string"
						},
						{
							"internalType": "string",
							"name": "lastName",
							"type": "string"
						},
						{
							"internalType": "uint256",
							"name": "rentedCarId",
							"type": "uint256"
						},
						{
							"internalType": "uint256",
							"name": "balance",
							"type": "uint256"
						},
						{
							"internalType": "uint256",
							"name": "debt",
							"type": "uint256"
						},
						{
							"internalType": "uint256",
							"name": "start",
							"type": "uint256"
						}
					],
					"internalType": "struct CarRentalPlatform.User",
					"name": "",
					"type": "tuple"
				}
			],
			"stateMutability": "view",
			"type": "function",
			"constant": true
		},
		{
			"inputs": [
				{
					"internalType": "uint256",
					"name": "id",
					"type": "uint256"
				}
			],
			"name": "getCar",
			"outputs": [
				{
					"components": [
						{
							"internalType": "uint256",
							"name": "id",
							"type": "uint256"
						},
						{
							"internalType": "string",
							"name": "name",
							"type": "string"
						},
						{
							"internalType": "string",
							"name": "imgUrl",
							"type": "string"
						},
						{
							"internalType": "enum CarRentalPlatform.Status",
							"name": "status",
							"type": "uint8"
						},
						{
							"internalType": "uint256",
							"name": "rentFee",
							"type": "uint256"
						},
						{
							"internalType": "uint256",
							"name": "saleFee",
							"type": "uint256"
						}
					],
					"internalType": "struct CarRentalPlatform.Car",
					"name": "",
					"type": "tuple"
				}
			],
			"stateMutability": "view",
			"type": "function",
			"constant": true
		},
		{
			"inputs": [
				{
					"internalType": "enum CarRentalPlatform.Status",
					"name": "_status",
					"type": "uint8"
				}
			],
			"name": "getCarsByStatus",
			"outputs": [
				{
					"components": [
						{
							"internalType": "uint256",
							"name": "id",
							"type": "uint256"
						},
						{
							"internalType": "string",
							"name": "name",
							"type": "string"
						},
						{
							"internalType": "string",
							"name": "imgUrl",
							"type": "string"
						},
						{
							"internalType": "enum CarRentalPlatform.Status",
							"name": "status",
							"type": "uint8"
						},
						{
							"internalType": "uint256",
							"name": "rentFee",
							"type": "uint256"
						},
						{
							"internalType": "uint256",
							"name": "saleFee",
							"type": "uint256"
						}
					],
					"internalType": "struct CarRentalPlatform.Car[]",
					"name": "",
					"type": "tuple[]"
				}
			],
			"stateMutability": "view",
			"type": "function",
			"constant": true
		},
		{
			"inputs": [],
			"name": "getCurrentCount",
			"outputs": [
				{
					"internalType": "uint256",
					"name": "",
					"type": "uint256"
				}
			],
			"stateMutability": "view",
			"type": "function",
			"constant": true
		},
		{
			"inputs": [],
			"name": "getContractBalance",
			"outputs": [
				{
					"internalType": "uint256",
					"name": "",
					"type": "uint256"
				}
			],
			"stateMutability": "view",
			"type": "function",
			"constant": true
		},
		{
			"inputs": [],
			"name": "getTotalPayments",
			"outputs": [
				{
					"internalType": "uint256",
					"name": "",
					"type": "uint256"
				}
			],
			"stateMutability": "view",
			"type": "function",
			"constant": true
		}
	],
	"bytecode": "0x608060405234801561001057600080fd5b50600160008190555033600260006101000a81548173ffffffffffffffffffffffffffffffffffffffff021916908373ffffffffffffffffffffffffffffffffffffffff1602179055506000600381905550613b46806100716000396000f3fe6080604052600436106101095760003560e01c80635e8be19011610095578063893d20e811610064578063893d20e81461033d578063ba38ccf614610368578063d0e30db0146103a5578063d8d79700146103af578063dd51babf146103c657610109565b80635e8be1901461026d5780636f77926b146102aa5780636f9fb98a146102e7578063708f29a61461031257610109565b80632e1a7d4d116100dc5780632e1a7d4d146101a05780633c69c657146101c9578063454110be146101f25780634865bed21461021b578063514a6ec71461024457610109565b8063079eaf341461010e57806313af403514610137578063183ff085146101605780631bd2eeee14610177575b600080fd5b34801561011a57600080fd5b50610135600480360381019061013091906125a1565b6103f1565b005b34801561014357600080fd5b5061015e60048036038101906101599190612680565b6106c4565b005b34801561016c57600080fd5b50610175610798565b005b34801561018357600080fd5b5061019e600480360381019061019991906126e3565b610a51565b005b3480156101ac57600080fd5b506101c760048036038101906101c291906126e3565b610d40565b005b3480156101d557600080fd5b506101f060048036038101906101eb91906126e3565b610f71565b005b3480156101fe57600080fd5b5061021960048036038101906102149190612710565b611128565b005b34801561022757600080fd5b50610242600480360381019061023d91906127cc565b6112e4565b005b34801561025057600080fd5b5061026b60048036038101906102669190612898565b611580565b005b34801561027957600080fd5b50610294600480360381019061028f91906126e3565b6116e3565b6040516102a19190612a7e565b60405180910390f35b3480156102b657600080fd5b506102d160048036038101906102cc9190612680565b6118e6565b6040516102de9190612b52565b60405180910390f35b3480156102f357600080fd5b506102fc611b29565b6040516103099190612b83565b60405180910390f35b34801561031e57600080fd5b50610327611bc1565b6040516103349190612b83565b60405180910390f35b34801561034957600080fd5b50610352611c5b565b60405161035f9190612bad565b60405180910390f35b34801561037457600080fd5b5061038f600480360381019061038a9190612bc8565b611c85565b60405161039c9190612d47565b60405180910390f35b6103ad611fb4565b005b3480156103bb57600080fd5b506103c46120e8565b005b3480156103d257600080fd5b506103db612347565b6040516103e89190612b83565b60405180910390f35b6103fa33612358565b1561043a576040517f08c379a000000000000000000000000000000000000000000000000000000000815260040161043190612dc6565b60405180910390fd5b6040518060e001604052803373ffffffffffffffffffffffffffffffffffffffff16815260200185858080601f016020809104026020016040519081016040528093929190818152602001838380828437600081840152601f19601f82011690508083019250505050505050815260200183838080601f016020809104026020016040519081016040528093929190818152602001838380828437600081840152601f19601f8201169050808301925050505050505081526020016000815260200160008152602001600081526020016000815250600560003373ffffffffffffffffffffffffffffffffffffffff1673ffffffffffffffffffffffffffffffffffffffff16815260200190815260200160002060008201518160000160006101000a81548173ffffffffffffffffffffffffffffffffffffffff021916908373ffffffffffffffffffffffffffffffffffffffff16021790555060208201518160010190816105aa9190613021565b5060408201518160020190816105c09190613021565b50606082015181600301556080820151816004015560a0820151816005015560c082015181600601559050503373ffffffffffffffffffffffffffffffffffffffff167fa2e1d286e25c6fce64acccdfd7a54d53cce2f617ddff648ab1dbb3458ccdd95b600560003373ffffffffffffffffffffffffffffffffffffffff1673ffffffffffffffffffffffffffffffffffffffff168152602001908152602001600020600101600560003373ffffffffffffffffffffffffffffffffffffffff1673ffffffffffffffffffffffffffffffffffffffff1681526020019081526020016000206002016040516106b6929190613177565b60405180910390a250505050565b600260009054906101000a900473ffffffffffffffffffffffffffffffffffffffff1673ffffffffffffffffffffffffffffffffffffffff163373ffffffffffffffffffffffffffffffffffffffff1614610754576040517f08c379a000000000000000000000000000000000000000000000000000000000815260040161074b90613220565b60405180910390fd5b80600260006101000a81548173ffffffffffffffffffffffffffffffffffffffff021916908373ffffffffffffffffffffffffffffffffffffffff16021790555050565b6107a133612358565b6107e0576040517f08c379a00000000000000000000000000000000000000000000000000000000081526004016107d79061328c565b60405180910390fd5b6000600560003373ffffffffffffffffffffffffffffffffffffffff1673ffffffffffffffffffffffffffffffffffffffff1681526020019081526020016000206003015490506000810361086a576040517f08c379a0000000000000000000000000000000000000000000000000000000008152600401610861906132f8565b60405180910390fd5b6000600560003373ffffffffffffffffffffffffffffffffffffffff1673ffffffffffffffffffffffffffffffffffffffff16815260200190815260200160002060060154426108ba9190613347565b90506000600460008481526020019081526020016000206004015490506108e182826123f3565b600560003373ffffffffffffffffffffffffffffffffffffffff1673ffffffffffffffffffffffffffffffffffffffff1681526020019081526020016000206005016000828254610932919061337b565b925050819055506000600560003373ffffffffffffffffffffffffffffffffffffffff1673ffffffffffffffffffffffffffffffffffffffff168152602001908152602001600020600301819055506000600560003373ffffffffffffffffffffffffffffffffffffffff1673ffffffffffffffffffffffffffffffffffffffff1681526020019081526020016000206006018190555060026004600085815260200190815260200160002060030160006101000a81548160ff02191690836002811115610a0357610a02612977565b5b0217905550823373ffffffffffffffffffffffffffffffffffffffff167fa864a8b988e604bb05d6ce75d53efabb5620c45b15380b7bd0c51dcfa71dda0360405160405180910390a3505050565b610a5a33612358565b610a99576040517f08c379a0000000000000000000000000000000000000000000000000000000008152600401610a909061328c565b60405180910390fd5b600280811115610aac57610aab612977565b5b6004600083815260200190815260200160002060030160009054906101000a900460ff166002811115610ae257610ae1612977565b5b14610b22576040517f08c379a0000000000000000000000000000000000000000000000000000000008152600401610b19906133fb565b60405180910390fd5b6000600560003373ffffffffffffffffffffffffffffffffffffffff1673ffffffffffffffffffffffffffffffffffffffff1681526020019081526020016000206003015414610ba7576040517f08c379a0000000000000000000000000000000000000000000000000000000008152600401610b9e90613467565b60405180910390fd5b6000600560003373ffffffffffffffffffffffffffffffffffffffff1673ffffffffffffffffffffffffffffffffffffffff1681526020019081526020016000206005015414610c2c576040517f08c379a0000000000000000000000000000000000000000000000000000000008152600401610c23906134d3565b60405180910390fd5b42600560003373ffffffffffffffffffffffffffffffffffffffff1673ffffffffffffffffffffffffffffffffffffffff1681526020019081526020016000206006018190555080600560003373ffffffffffffffffffffffffffffffffffffffff1673ffffffffffffffffffffffffffffffffffffffff1681526020019081526020016000206003018190555060016004600083815260200190815260200160002060030160006101000a81548160ff02191690836002811115610cf457610cf3612977565b5b0217905550803373ffffffffffffffffffffffffffffffffffffffff167ff65ce03794824579bcd95d8c6743ffc10c4a5e7405fb3876c1abf81453105c4260405160405180910390a350565b610d4861241a565b610d5133612358565b610d90576040517f08c379a0000000000000000000000000000000000000000000000000000000008152600401610d879061328c565b60405180910390fd5b6000600560003373ffffffffffffffffffffffffffffffffffffffff1673ffffffffffffffffffffffffffffffffffffffff16815260200190815260200160002060040154905081811015610e1a576040517f08c379a0000000000000000000000000000000000000000000000000000000008152600401610e1190613565565b60405180910390fd5b81600560003373ffffffffffffffffffffffffffffffffffffffff1673ffffffffffffffffffffffffffffffffffffffff1681526020019081526020016000206004016000828254039250508190555060003373ffffffffffffffffffffffffffffffffffffffff1683604051610e90906135b6565b60006040518083038185875af1925050503d8060008114610ecd576040519150601f19603f3d011682016040523d82523d6000602084013e610ed2565b606091505b5050905080610f16576040517f08c379a0000000000000000000000000000000000000000000000000000000008152600401610f0d90613617565b60405180910390fd5b3373ffffffffffffffffffffffffffffffffffffffff167f884edad9ce6fa2440d8a54cc123490eb96d2768479d49ff9c7366125a942436484604051610f5c9190612b83565b60405180910390a25050610f6e612469565b50565b600260009054906101000a900473ffffffffffffffffffffffffffffffffffffffff1673ffffffffffffffffffffffffffffffffffffffff163373ffffffffffffffffffffffffffffffffffffffff1614611001576040517f08c379a0000000000000000000000000000000000000000000000000000000008152600401610ff890613220565b60405180910390fd5b806003541015611046576040517f08c379a000000000000000000000000000000000000000000000000000000000815260040161103d906136a9565b60405180910390fd5b6000600260009054906101000a900473ffffffffffffffffffffffffffffffffffffffff1673ffffffffffffffffffffffffffffffffffffffff168260405161108e906135b6565b60006040518083038185875af1925050503d80600081146110cb576040519150601f19603f3d011682016040523d82523d6000602084013e6110d0565b606091505b5050905080611114576040517f08c379a000000000000000000000000000000000000000000000000000000000815260040161110b90613617565b60405180910390fd5b816003600082825403925050819055505050565b600260009054906101000a900473ffffffffffffffffffffffffffffffffffffffff1673ffffffffffffffffffffffffffffffffffffffff163373ffffffffffffffffffffffffffffffffffffffff16146111b8576040517f08c379a00000000000000000000000000000000000000000000000000000000081526004016111af90613220565b60405180910390fd5b6000600460008981526020019081526020016000206000015403611211576040517f08c379a000000000000000000000000000000000000000000000000000000000815260040161120890613715565b60405180910390fd5b600060046000898152602001908152602001600020905060008787905014611248578686826001019182611246929190613740565b505b60008585905014611268578484826002019182611266929190613740565b505b600083111561127b578281600401819055505b600082111561128e578181600501819055505b877f7da11220d21f11c2e21f3e65b516a7ec025d8d7e8e3de69d32ae83ec598269798260010183600201846004015485600501546040516112d29493929190613810565b60405180910390a25050505050505050565b600260009054906101000a900473ffffffffffffffffffffffffffffffffffffffff1673ffffffffffffffffffffffffffffffffffffffff163373ffffffffffffffffffffffffffffffffffffffff1614611374576040517f08c379a000000000000000000000000000000000000000000000000000000000815260040161136b90613220565b60405180910390fd5b61137e6001612473565b600061138a6001612489565b90506040518060c0016040528082815260200188888080601f016020809104026020016040519081016040528093929190818152602001838380828437600081840152601f19601f82011690508083019250505050505050815260200186868080601f016020809104026020016040519081016040528093929190818152602001838380828437600081840152601f19601f82011690508083019250505050505050815260200160028081111561144457611443612977565b5b815260200184815260200183815250600460008381526020019081526020016000206000820151816000015560208201518160010190816114859190613021565b50604082015181600201908161149b9190613021565b5060608201518160030160006101000a81548160ff021916908360028111156114c7576114c6612977565b5b02179055506080820151816004015560a08201518160050155905050807f80ade951198a79c716d7c0b73ed9f7c42d6844ff74f020bf406a09f7056c3b5960046000848152602001908152602001600020600101600460008581526020019081526020016000206002016004600086815260200190815260200160002060040154600460008781526020019081526020016000206005015460405161156f9493929190613810565b60405180910390a250505050505050565b600260009054906101000a900473ffffffffffffffffffffffffffffffffffffffff1673ffffffffffffffffffffffffffffffffffffffff163373ffffffffffffffffffffffffffffffffffffffff1614611610576040517f08c379a000000000000000000000000000000000000000000000000000000000815260040161160790613220565b60405180910390fd5b6000600460008481526020019081526020016000206000015403611669576040517f08c379a000000000000000000000000000000000000000000000000000000000815260040161166090613715565b60405180910390fd5b806004600084815260200190815260200160002060030160006101000a81548160ff021916908360028111156116a2576116a1612977565b5b0217905550817fbfabe8d9aa9c0940b5b85ea906a463b9c0e69242b0ad2c8f0fbf5240e2f4674d826040516116d79190613872565b60405180910390a25050565b6116eb612497565b6000600460008481526020019081526020016000206000015403611744576040517f08c379a000000000000000000000000000000000000000000000000000000000815260040161173b90613715565b60405180910390fd5b600460008381526020019081526020016000206040518060c00160405290816000820154815260200160018201805461177c90612e44565b80601f01602080910402602001604051908101604052809291908181526020018280546117a890612e44565b80156117f55780601f106117ca576101008083540402835291602001916117f5565b820191906000526020600020905b8154815290600101906020018083116117d857829003601f168201915b5050505050815260200160028201805461180e90612e44565b80601f016020809104026020016040519081016040528092919081815260200182805461183a90612e44565b80156118875780601f1061185c57610100808354040283529160200191611887565b820191906000526020600020905b81548152906001019060200180831161186a57829003601f168201915b505050505081526020016003820160009054906101000a900460ff1660028111156118b5576118b4612977565b5b60028111156118c7576118c6612977565b5b8152602001600482015481526020016005820154815250509050919050565b6118ee6124df565b6118f782612358565b611936576040517f08c379a000000000000000000000000000000000000000000000000000000000815260040161192d9061328c565b60405180910390fd5b600560008373ffffffffffffffffffffffffffffffffffffffff1673ffffffffffffffffffffffffffffffffffffffff1681526020019081526020016000206040518060e00160405290816000820160009054906101000a900473ffffffffffffffffffffffffffffffffffffffff1673ffffffffffffffffffffffffffffffffffffffff1673ffffffffffffffffffffffffffffffffffffffff1681526020016001820180546119e690612e44565b80601f0160208091040260200160405190810160405280929190818152602001828054611a1290612e44565b8015611a5f5780601f10611a3457610100808354040283529160200191611a5f565b820191906000526020600020905b815481529060010190602001808311611a4257829003601f168201915b50505050508152602001600282018054611a7890612e44565b80601f0160208091040260200160405190810160405280929190818152602001828054611aa490612e44565b8015611af15780601f10611ac657610100808354040283529160200191611af1565b820191906000526020600020905b815481529060010190602001808311611ad457829003601f168201915b505050505081526020016003820154815260200160048201548152602001600582015481526020016006820154815250509050919050565b6000600260009054906101000a900473ffffffffffffffffffffffffffffffffffffffff1673ffffffffffffffffffffffffffffffffffffffff163373ffffffffffffffffffffffffffffffffffffffff1614611bbb576040517f08c379a0000000000000000000000000000000000000000000000000000000008152600401611bb290613220565b60405180910390fd5b47905090565b6000600260009054906101000a900473ffffffffffffffffffffffffffffffffffffffff1673ffffffffffffffffffffffffffffffffffffffff163373ffffffffffffffffffffffffffffffffffffffff1614611c53576040517f08c379a0000000000000000000000000000000000000000000000000000000008152600401611c4a90613220565b60405180910390fd5b600354905090565b6000600260009054906101000a900473ffffffffffffffffffffffffffffffffffffffff16905090565b6060600080611c946001612489565b90506000600190505b818111611d1457846002811115611cb757611cb6612977565b5b6004600083815260200190815260200160002060030160009054906101000a900460ff166002811115611ced57611cec612977565b5b03611d01578280611cfd9061388d565b9350505b8080611d0c9061388d565b915050611c9d565b5060008267ffffffffffffffff811115611d3157611d30612de6565b5b604051908082528060200260200182016040528015611d6a57816020015b611d57612497565b815260200190600190039081611d4f5790505b509050600092506000600190505b828111611fa857856002811115611d9257611d91612977565b5b6004600083815260200190815260200160002060030160009054906101000a900460ff166002811115611dc857611dc7612977565b5b03611f9557600460008281526020019081526020016000206040518060c001604052908160008201548152602001600182018054611e0590612e44565b80601f0160208091040260200160405190810160405280929190818152602001828054611e3190612e44565b8015611e7e5780601f10611e5357610100808354040283529160200191611e7e565b820191906000526020600020905b815481529060010190602001808311611e6157829003601f168201915b50505050508152602001600282018054611e9790612e44565b80601f0160208091040260200160405190810160405280929190818152602001828054611ec390612e44565b8015611f105780601f10611ee557610100808354040283529160200191611f10565b820191906000526020600020905b815481529060010190602001808311611ef357829003601f168201915b505050505081526020016003820160009054906101000a900460ff166002811115611f3e57611f3d612977565b5b6002811115611f5057611f4f612977565b5b815260200160048201548152602001600582015481525050828581518110611f7b57611f7a6138d5565b5b60200260200101819052508380611f919061388d565b9450505b8080611fa09061388d565b915050611d78565b50809350505050919050565b611fbd33612358565b611ffc576040517f08c379a0000000000000000000000000000000000000000000000000000000008152600401611ff39061328c565b60405180910390fd5b6000341161203f576040517f08c379a000000000000000000000000000000000000000000000000000000000815260040161203690613976565b60405180910390fd5b34600560003373ffffffffffffffffffffffffffffffffffffffff1673ffffffffffffffffffffffffffffffffffffffff1681526020019081526020016000206004016000828254612091919061337b565b925050819055503373ffffffffffffffffffffffffffffffffffffffff167fe1fffcc4923d04b559f4d29a8bfc6cda04eb5b0d3c460751c2402c5c5cc9109c346040516120de9190612b83565b60405180910390a2565b6120f133612358565b612130576040517f08c379a00000000000000000000000000000000000000000000000000000000081526004016121279061328c565b60405180910390fd5b6000600560003373ffffffffffffffffffffffffffffffffffffffff1673ffffffffffffffffffffffffffffffffffffffff1681526020019081526020016000206005015490506000600560003373ffffffffffffffffffffffffffffffffffffffff1673ffffffffffffffffffffffffffffffffffffffff16815260200190815260200160002060040154905060008211612201576040517f08c379a00000000000000000000000000000000000000000000000000000000081526004016121f8906139e2565b60405180910390fd5b81811015612244576040517f08c379a000000000000000000000000000000000000000000000000000000000815260040161223b90613565565b60405180910390fd5b81600560003373ffffffffffffffffffffffffffffffffffffffff1673ffffffffffffffffffffffffffffffffffffffff1681526020019081526020016000206004016000828254039250508190555081600360008282546122a6919061337b565b925050819055506000600560003373ffffffffffffffffffffffffffffffffffffffff1673ffffffffffffffffffffffffffffffffffffffff168152602001908152602001600020600501819055503373ffffffffffffffffffffffffffffffffffffffff167f3a2d0e41c506b136330c6e5e0295ccbf0966daece99bfe7c89020cc01dbfb8d68360405161233b9190612b83565b60405180910390a25050565b60006123536001612489565b905090565b60008073ffffffffffffffffffffffffffffffffffffffff16600560008473ffffffffffffffffffffffffffffffffffffffff1673ffffffffffffffffffffffffffffffffffffffff16815260200190815260200160002060000160009054906101000a900473ffffffffffffffffffffffffffffffffffffffff1673ffffffffffffffffffffffffffffffffffffffff1614159050919050565b600080603c846124039190613a31565b905082816124119190613a62565b91505092915050565b60026000540361245f576040517f08c379a000000000000000000000000000000000000000000000000000000000815260040161245690613af0565b60405180910390fd5b6002600081905550565b6001600081905550565b6001816000016000828254019250508190555050565b600081600001549050919050565b6040518060c00160405280600081526020016060815260200160608152602001600060028111156124cb576124ca612977565b5b815260200160008152602001600081525090565b6040518060e00160405280600073ffffffffffffffffffffffffffffffffffffffff1681526020016060815260200160608152602001600081526020016000815260200160008152602001600081525090565b600080fd5b600080fd5b600080fd5b600080fd5b600080fd5b60008083601f8401126125615761256061253c565b5b8235905067ffffffffffffffff81111561257e5761257d612541565b5b60208301915083600182028301111561259a57612599612546565b5b9250929050565b600080600080604085870312156125bb576125ba612532565b5b600085013567ffffffffffffffff8111156125d9576125d8612537565b5b6125e58782880161254b565b9450945050602085013567ffffffffffffffff81111561260857612607612537565b5b6126148782880161254b565b925092505092959194509250565b600073ffffffffffffffffffffffffffffffffffffffff82169050919050565b600061264d82612622565b9050919050565b61265d81612642565b811461266857600080fd5b50565b60008135905061267a81612654565b92915050565b60006020828403121561269657612695612532565b5b60006126a48482850161266b565b91505092915050565b6000819050919050565b6126c0816126ad565b81146126cb57600080fd5b50565b6000813590506126dd816126b7565b92915050565b6000602082840312156126f9576126f8612532565b5b6000612707848285016126ce565b91505092915050565b600080600080600080600060a0888a03121561272f5761272e612532565b5b600061273d8a828b016126ce565b975050602088013567ffffffffffffffff81111561275e5761275d612537565b5b61276a8a828b0161254b565b9650965050604088013567ffffffffffffffff81111561278d5761278c612537565b5b6127998a828b0161254b565b945094505060606127ac8a828b016126ce565b92505060806127bd8a828b016126ce565b91505092959891949750929550565b600080600080600080608087890312156127e9576127e8612532565b5b600087013567ffffffffffffffff81111561280757612806612537565b5b61281389828a0161254b565b9650965050602087013567ffffffffffffffff81111561283657612835612537565b5b61284289828a0161254b565b9450945050604061285589828a016126ce565b925050606061286689828a016126ce565b9150509295509295509295565b6003811061288057600080fd5b50565b60008135905061289281612873565b92915050565b600080604083850312156128af576128ae612532565b5b60006128bd858286016126ce565b92505060206128ce85828601612883565b9150509250929050565b6128e1816126ad565b82525050565b600081519050919050565b600082825260208201905092915050565b60005b83811015612921578082015181840152602081019050612906565b60008484015250505050565b6000601f19601f8301169050919050565b6000612949826128e7565b61295381856128f2565b9350612963818560208601612903565b61296c8161292d565b840191505092915050565b7f4e487b7100000000000000000000000000000000000000000000000000000000600052602160045260246000fd5b600381106129b7576129b6612977565b5b50565b60008190506129c8826129a6565b919050565b60006129d8826129ba565b9050919050565b6129e8816129cd565b82525050565b600060c083016000830151612a0660008601826128d8565b5060208301518482036020860152612a1e828261293e565b91505060408301518482036040860152612a38828261293e565b9150506060830151612a4d60608601826129df565b506080830151612a6060808601826128d8565b5060a0830151612a7360a08601826128d8565b508091505092915050565b60006020820190508181036000830152612a9881846129ee565b905092915050565b612aa981612642565b82525050565b600060e083016000830151612ac76000860182612aa0565b5060208301518482036020860152612adf828261293e565b91505060408301518482036040860152612af9828261293e565b9150506060830151612b0e60608601826128d8565b506080830151612b2160808601826128d8565b5060a0830151612b3460a08601826128d8565b5060c0830151612b4760c08601826128d8565b508091505092915050565b60006020820190508181036000830152612b6c8184612aaf565b905092915050565b612b7d816126ad565b82525050565b6000602082019050612b986000830184612b74565b92915050565b612ba781612642565b82525050565b6000602082019050612bc26000830184612b9e565b92915050565b600060208284031215612bde57612bdd612532565b5b6000612bec84828501612883565b91505092915050565b600081519050919050565b600082825260208201905092915050565b6000819050602082019050919050565b600060c083016000830151612c3960008601826128d8565b5060208301518482036020860152612c51828261293e565b91505060408301518482036040860152612c6b828261293e565b9150506060830151612c8060608601826129df565b506080830151612c9360808601826128d8565b5060a0830151612ca660a08601826128d8565b508091505092915050565b6000612cbd8383612c21565b905092915050565b6000602082019050919050565b6000612cdd82612bf5565b612ce78185612c00565b935083602082028501612cf985612c11565b8060005b85811015612d355784840389528151612d168582612cb1565b9450612d2183612cc5565b925060208a01995050600181019050612cfd565b50829750879550505050505092915050565b60006020820190508181036000830152612d618184612cd2565b905092915050565b600082825260208201905092915050565b7f5573657220616c72656164792065786973747300000000000000000000000000600082015250565b6000612db0601383612d69565b9150612dbb82612d7a565b602082019050919050565b60006020820190508181036000830152612ddf81612da3565b9050919050565b7f4e487b7100000000000000000000000000000000000000000000000000000000600052604160045260246000fd5b7f4e487b7100000000000000000000000000000000000000000000000000000000600052602260045260246000fd5b60006002820490506001821680612e5c57607f821691505b602082108103612e6f57612e6e612e15565b5b50919050565b60008190508160005260206000209050919050565b60006020601f8301049050919050565b600082821b905092915050565b600060088302612ed77fffffffffffffffffffffffffffffffffffffffffffffffffffffffffffffffff82612e9a565b612ee18683612e9a565b95508019841693508086168417925050509392505050565b6000819050919050565b6000612f1e612f19612f14846126ad565b612ef9565b6126ad565b9050919050565b6000819050919050565b612f3883612f03565b612f4c612f4482612f25565b848454612ea7565b825550505050565b600090565b612f61612f54565b612f6c818484612f2f565b505050565b5b81811015612f9057612f85600082612f59565b600181019050612f72565b5050565b601f821115612fd557612fa681612e75565b612faf84612e8a565b81016020851015612fbe578190505b612fd2612fca85612e8a565b830182612f71565b50505b505050565b600082821c905092915050565b6000612ff860001984600802612fda565b1980831691505092915050565b60006130118383612fe7565b9150826002028217905092915050565b61302a826128e7565b67ffffffffffffffff81111561304357613042612de6565b5b61304d8254612e44565b613058828285612f94565b600060209050601f83116001811461308b5760008415613079578287015190505b6130838582613005565b8655506130eb565b601f19841661309986612e75565b60005b828110156130c15784890151825560018201915060208501945060208101905061309c565b868310156130de57848901516130da601f891682612fe7565b8355505b6001600288020188555050505b505050505050565b6000815461310081612e44565b61310a8186612d69565b94506001821660008114613125576001811461313b5761316e565b60ff19831686528115156020028601935061316e565b61314485612e75565b60005b8381101561316657815481890152600182019150602081019050613147565b808801955050505b50505092915050565b6000604082019050818103600083015261319181856130f3565b905081810360208301526131a581846130f3565b90509392505050565b7f4f6e6c79206f776e65722063616e2063616c6c20746869732066756e6374696f60008201527f6e00000000000000000000000000000000000000000000000000000000000000602082015250565b600061320a602183612d69565b9150613215826131ae565b604082019050919050565b60006020820190508181036000830152613239816131fd565b9050919050565b7f5573657220646f6573206e6f7420657869737400000000000000000000000000600082015250565b6000613276601383612d69565b915061328182613240565b602082019050919050565b600060208201905081810360008301526132a581613269565b9050919050565b7f5573657220646f6573206e6f7420686176652061206361722072656e74656400600082015250565b60006132e2601f83612d69565b91506132ed826132ac565b602082019050919050565b60006020820190508181036000830152613311816132d5565b9050919050565b7f4e487b7100000000000000000000000000000000000000000000000000000000600052601160045260246000fd5b6000613352826126ad565b915061335d836126ad565b925082820390508181111561337557613374613318565b5b92915050565b6000613386826126ad565b9150613391836126ad565b92508282019050808211156133a9576133a8613318565b5b92915050565b7f436172206973206e6f7420617661696c61626c65000000000000000000000000600082015250565b60006133e5601483612d69565b91506133f0826133af565b602082019050919050565b60006020820190508181036000830152613414816133d8565b9050919050565b7f5573657220616c7265616479206861732061206361722072656e746564000000600082015250565b6000613451601d83612d69565b915061345c8261341b565b602082019050919050565b6000602082019050818103600083015261348081613444565b9050919050565b7f5573657220686173206120646562740000000000000000000000000000000000600082015250565b60006134bd600f83612d69565b91506134c882613487565b602082019050919050565b600060208201905081810360008301526134ec816134b0565b9050919050565b7f5573657220646f6573206e6f74206861766520656e6f7567682062616c616e6360008201527f6500000000000000000000000000000000000000000000000000000000000000602082015250565b600061354f602183612d69565b915061355a826134f3565b604082019050919050565b6000602082019050818103600083015261357e81613542565b9050919050565b600081905092915050565b50565b60006135a0600083613585565b91506135ab82613590565b600082019050919050565b60006135c182613593565b9150819050919050565b7f5472616e73666572206661696c65642e00000000000000000000000000000000600082015250565b6000613601601083612d69565b915061360c826135cb565b602082019050919050565b60006020820190508181036000830152613630816135f4565b9050919050565b7f4f776e657220646f6573206e6f74206861766520656e6f7567682062616c616e60008201527f6365000000000000000000000000000000000000000000000000000000000000602082015250565b6000613693602283612d69565b915061369e82613637565b604082019050919050565b600060208201905081810360008301526136c281613686565b9050919050565b7f43617220646f6573206e6f742065786973740000000000000000000000000000600082015250565b60006136ff601283612d69565b915061370a826136c9565b602082019050919050565b6000602082019050818103600083015261372e816136f2565b9050919050565b600082905092915050565b61374a8383613735565b67ffffffffffffffff81111561376357613762612de6565b5b61376d8254612e44565b613778828285612f94565b6000601f8311600181146137a75760008415613795578287013590505b61379f8582613005565b865550613807565b601f1984166137b586612e75565b60005b828110156137dd578489013582556001820191506020850194506020810190506137b8565b868310156137fa57848901356137f6601f891682612fe7565b8355505b6001600288020188555050505b50505050505050565b6000608082019050818103600083015261382a81876130f3565b9050818103602083015261383e81866130f3565b905061384d6040830185612b74565b61385a6060830184612b74565b95945050505050565b61386c816129cd565b82525050565b60006020820190506138876000830184613863565b92915050565b6000613898826126ad565b91507fffffffffffffffffffffffffffffffffffffffffffffffffffffffffffffffff82036138ca576138c9613318565b5b600182019050919050565b7f4e487b7100000000000000000000000000000000000000000000000000000000600052603260045260246000fd5b7f4465706f73697420616d6f756e74206d7573742062652067726561746572207460008201527f68616e2030000000000000000000000000000000000000000000000000000000602082015250565b6000613960602583612d69565b915061396b82613904565b604082019050919050565b6000602082019050818103600083015261398f81613953565b9050919050565b7f5573657220646f6573206e6f7420686176652061206465627400000000000000600082015250565b60006139cc601983612d69565b91506139d782613996565b602082019050919050565b600060208201905081810360008301526139fb816139bf565b9050919050565b7f4e487b7100000000000000000000000000000000000000000000000000000000600052601260045260246000fd5b6000613a3c826126ad565b9150613a47836126ad565b925082613a5757613a56613a02565b5b828204905092915050565b6000613a6d826126ad565b9150613a78836126ad565b9250828202613a86816126ad565b91508282048414831517613a9d57613a9c613318565b5b5092915050565b7f5265656e7472616e637947756172643a207265656e7472616e742063616c6c00600082015250565b6000613ada601f83612d69565b9150613ae582613aa4565b602082019050919050565b60006020820190508181036000830152613b0981613acd565b905091905056fea2646970667358221220f5d7a12aba8fa4fde477bed26f01d55b09a4d6bb1a4a8e8cdb54a03439d402b564736f6c63430008110033",
	"immutableReferences": {},
	"source": "// SPDX-License-Identifier: MIT\npragma solidity ^0.8.17;\n\nimport \"@openzeppelin/contracts/utils/Counters.sol\";\nimport \"@openzeppelin/contracts/security/ReentrancyGuard.sol\";\n\ncontract CarRentalPlatform is ReentrancyGuard {\n  using Counters for Counters.Counter;\n  Counters.Counter private _counter;\n  \n  address private owner;\n\n  uint private totalPayments;\n\n  struct User {\n    address walletAddress;\n    string name;\n    string lastName;\n    uint rentedCarId;\n    uint balance;\n    uint debt;\n    uint start;\n  }\n\n  struct Car {\n    uint id;\n    string name;\n    string imgUrl;\n    Status status;\n    uint rentFee;\n    uint saleFee;\n  }\n\n  enum Status {\n    Retired,\n    InUse,\n    Available\n  }\n\n  event CarCreated(uint indexed id, string name, string imgUrl, uint rentFee, uint saleFee);\n  event CarMetaDataUpdated(uint indexed id, string name, string imgUrl, uint rentFee, uint saleFee);\n  event CarStatusUpdated(uint indexed id, Status status);\n\n  event UserCreated(address indexed walletAddress, string name, string lastName);\n  event Deposit(address indexed walletAddress, uint amount);\n  event CheckOut(address indexed walletAddress, uint indexed carId);\n  event CheckIn(address indexed walletAddress, uint indexed carId);\n  event PaymentMade(address indexed walletAddress, uint amount);\n  event Withdraw(address indexed walletAddress, uint amount);\n\n  mapping(uint => Car) private cars;\n  mapping(address => User) private users;\n\n  constructor() {\n    owner = msg.sender;\n    totalPayments = 0;\n  }\n\n  modifier onlyOwner() {\n    require(msg.sender == owner, \"Only owner can call this function\");\n    _;\n  }\n\n  function setOwner(address _newOwner) external onlyOwner {\n    owner = _newOwner;\n  }\n\n  function addUser(string calldata name, string calldata lastName) external {\n    require(!isUser(msg.sender), \"User already exists\");\n    users[msg.sender] = User(msg.sender, name, lastName, 0, 0, 0, 0);\n\n    emit UserCreated(msg.sender, users[msg.sender].name, users[msg.sender].lastName);\n  }\n\n  function addCar(string calldata name, string calldata imgUrl, uint rentFee, uint saleFee) external onlyOwner {\n    _counter.increment();\n    uint id = _counter.current();\n    cars[id] = Car(id, name, imgUrl, Status.Available, rentFee, saleFee);\n\n    emit CarCreated(id, cars[id].name, cars[id].imgUrl, cars[id].rentFee, cars[id].saleFee);\n  }\n\n  function updateCarMetaData(uint id, string calldata name, string calldata imgUrl, uint rentFee, uint saleFee) external onlyOwner {\n    require(cars[id].id != 0, \"Car does not exist\");\n    Car storage car = cars[id];\n    if(bytes(name).length != 0) {\n      car.name = name;\n    }\n    if(bytes(imgUrl).length != 0) {\n      car.imgUrl = imgUrl;\n    }\n    if(rentFee > 0) {\n      car.rentFee = rentFee;\n    }\n    if(saleFee > 0) {\n      car.saleFee = saleFee;\n    }\n\n    emit CarMetaDataUpdated(id, car.name, car.imgUrl, car.rentFee, car.saleFee);\n  }\n\n  function updateCarStatus(uint id, Status status) external onlyOwner {\n    require(cars[id].id != 0, \"Car does not exist\");\n    cars[id].status = status;\n\n    emit CarStatusUpdated(id, status);\n  }\n\n  function checkOut(uint id) external {\n    require(isUser(msg.sender), \"User does not exist\");\n    require(cars[id].status == Status.Available, \"Car is not available\");\n    require(users[msg.sender].rentedCarId == 0, \"User already has a car rented\");\n    require(users[msg.sender].debt == 0, \"User has a debt\");\n\n    users[msg.sender].start = block.timestamp;\n    users[msg.sender].rentedCarId = id;\n    cars[id].status = Status.InUse;\n\n    emit CheckOut(msg.sender, id);\n  }\n\n  function checkIn() external {\n    require(isUser(msg.sender), \"User does not exist\");\n\n    uint rentedCarId = users[msg.sender].rentedCarId;\n    require(rentedCarId != 0, \"User does not have a car rented\");\n\n    uint timeElapsed = block.timestamp - users[msg.sender].start;\n    uint rentFee = cars[rentedCarId].rentFee;\n\n    users[msg.sender].debt += calculateDebt(timeElapsed, rentFee);\n\n    users[msg.sender].rentedCarId = 0;\n    users[msg.sender].start = 0;\n    cars[rentedCarId].status = Status.Available;\n\n    emit CheckIn(msg.sender, rentedCarId);\n  }\n\n  function deposit() external payable {\n    require(isUser(msg.sender), \"User does not exist\");\n    require(msg.value > 0, \"Deposit amount must be greater than 0\");\n\n    users[msg.sender].balance += msg.value;\n\n    emit Deposit(msg.sender, msg.value);\n  }\n\n  function makePayment() external {\n    require(isUser(msg.sender), \"User does not exist\");\n\n    uint debt = users[msg.sender].debt;\n    uint balance = users[msg.sender].balance;\n\n    require(debt > 0, \"User does not have a debt\");\n    require(balance >= debt, \"User does not have enough balance\");\n\n    unchecked {\n      users[msg.sender].balance -= debt;\n    }\n\n    totalPayments += debt;\n    users[msg.sender].debt = 0;\n\n    emit PaymentMade(msg.sender, debt);\n  }\n\n  function withdraw(uint amount) external nonReentrant {\n    require(isUser(msg.sender), \"User does not exist\");\n\n    uint balance = users[msg.sender].balance;\n    require (balance >= amount, \"User does not have enough balance\");\n\n    unchecked {\n      users[msg.sender].balance -= amount;\n    }\n\n    (bool success, ) = msg.sender.call{value: amount}(\"\");\n    require(success, \"Transfer failed.\");\n\n    emit Withdraw(msg.sender, amount);\n  }\n\n  function withdrawOwnerBalance(uint amount) external onlyOwner {\n    require(totalPayments >= amount, \"Owner does not have enough balance\");\n\n    (bool success, ) = owner.call{value: amount}(\"\");\n    require(success, \"Transfer failed.\");\n\n    unchecked {\n      totalPayments -= amount;\n    }\n  }\n\n  function getOwner() external view returns(address) {\n    return owner;\n  }\n\n  function isUser(address walletAddress) internal view returns(bool) {\n    return users[walletAddress].walletAddress != address(0);\n  }\n\n  function getUser(address walletAddress) external view returns(User memory) {\n    require(isUser(walletAddress), \"User does not exist\");\n    return users[walletAddress];\n  }\n\n  function getCar(uint id) external view returns(Car memory) {\n    require(cars[id].id != 0, \"Car does not exist\");\n    return cars[id];\n  }\n\n  function getCarsByStatus(Status _status) external view returns(Car[] memory) {\n    uint count = 0;\n    uint length = _counter.current();\n    for(uint i = 1; i <= length; i++) {\n      if(cars[i].status == _status) {\n        count++;\n      }\n    }\n    Car[] memory result = new Car[](count);\n    count = 0;\n    for(uint i = 1; i <= length; i++) {\n      if(cars[i].status == _status) {\n        result[count] = cars[i];\n        count++;\n      }\n    }\n    return result;\n  }\n \n  function calculateDebt(uint timeElapsed, uint rentFee) private pure returns(uint) {\n    uint minutesElapsed = timeElapsed / 60;\n    return minutesElapsed * rentFee;\n  }\n\n  function getCurrentCount() external view returns(uint) {\n    return _counter.current();\n  }\n\n  function getContractBalance() external view onlyOwner returns(uint) {\n    return address(this).balance;\n  }\n\n  function getTotalPayments() external view onlyOwner returns(uint) {\n    return totalPayments;\n  }\n}\n",
	"sourcePath": "/Users/emrekarayaman/Code/car-rental-dapp/contracts/bsc/CarRentalPlatform.sol",
	"compiler": {
		"name": "solc",
		"version": "0.8.17+commit.8df45f5f.Emscripten.clang"
	},
	"schemaVersion": "3.4.14",
	"updatedAt": "2023-06-18T11:30:00.812Z",
	"networkType": "ethereum",
	"devdoc": {
		"kind": "dev",
		"methods": {},
		"version": 1
	},
	"userdoc": {
		"kind": "user",
		"methods": {},
		"version": 1
	},
	"db": {
		"callBytecode": {
			"id": "0xde531ffb77199e4015107544d0c54bde80874cc0a4eb543bc7531af1e35a51db"
		},
		"createBytecode": {
			"id": "0x7f850dab6b982c2f91d52eeede44c5f5681b45d5f74d4bcd3e59be5d87a8e206"
		},
		"contract": {
			"id": "0xaea2e10166474810f031ea82ad40c5f771ec8a06cf88e3bff986d2969b649574"
		}
	}
}